{
  "contractName": "RideShareConnect",
  "abi": [
    {
      "anonymous": false,
      "inputs": [
        {
          "indexed": true,
          "internalType": "address",
          "name": "userAddress",
          "type": "address"
        },
        {
          "indexed": false,
          "internalType": "string",
          "name": "username",
          "type": "string"
        },
        {
          "indexed": false,
          "internalType": "bool",
          "name": "isDriver",
          "type": "bool"
        }
      ],
      "name": "UserSignup",
      "type": "event"
    },
    {
      "inputs": [
        {
          "internalType": "address",
          "name": "",
          "type": "address"
        }
      ],
      "name": "users",
      "outputs": [
        {
          "internalType": "bool",
          "name": "isDriver",
          "type": "bool"
        },
        {
          "internalType": "string",
          "name": "username",
          "type": "string"
        },
        {
          "internalType": "string",
          "name": "password",
          "type": "string"
        },
        {
          "internalType": "string",
          "name": "carRegistration",
          "type": "string"
        },
        {
          "internalType": "uint256",
          "name": "numberOfSeats",
          "type": "uint256"
        },
        {
          "internalType": "uint256",
          "name": "seatPrice",
          "type": "uint256"
        }
      ],
      "stateMutability": "view",
      "type": "function",
      "constant": true
    },
    {
      "inputs": [
        {
          "internalType": "string",
          "name": "_username",
          "type": "string"
        },
        {
          "internalType": "string",
          "name": "_password",
          "type": "string"
        }
      ],
      "name": "signupCustomer",
      "outputs": [],
      "stateMutability": "nonpayable",
      "type": "function"
    },
    {
      "inputs": [
        {
          "internalType": "string",
          "name": "_username",
          "type": "string"
        },
        {
          "internalType": "string",
          "name": "_password",
          "type": "string"
        },
        {
          "internalType": "string",
          "name": "_carRegistration",
          "type": "string"
        },
        {
          "internalType": "uint256",
          "name": "_numberOfSeats",
          "type": "uint256"
        },
        {
          "internalType": "uint256",
          "name": "_seatPrice",
          "type": "uint256"
        }
      ],
      "name": "signupDriver",
      "outputs": [],
      "stateMutability": "nonpayable",
      "type": "function"
    },
    {
      "inputs": [
        {
          "internalType": "string",
          "name": "_username",
          "type": "string"
        },
        {
          "internalType": "string",
          "name": "_password",
          "type": "string"
        }
      ],
      "name": "signin",
      "outputs": [
        {
          "internalType": "bool",
          "name": "",
          "type": "bool"
        }
      ],
      "stateMutability": "view",
      "type": "function",
      "constant": true
    }
  ],
  "bytecode": "0x608060405234801561001057600080fd5b506113c6806100206000396000f3fe608060405234801561001057600080fd5b506004361061004c5760003560e01c8063513aa3dc1461005157806357e5b0981461006d578063990a4a9a14610089578063a87430ba146100b9575b600080fd5b61006b60048036038101906100669190610b75565b6100ee565b005b61008760048036038101906100829190610be1565b6103db565b005b6100a3600480360381019061009e9190610b75565b610716565b6040516100b09190610fd9565b60405180910390f35b6100d360048036038101906100ce9190610b4c565b610836565b6040516100e596959493929190610ff4565b60405180910390f35b3273ffffffffffffffffffffffffffffffffffffffff163373ffffffffffffffffffffffffffffffffffffffff161461015c576040517f08c379a0000000000000000000000000000000000000000000000000000000008152600401610153906110fa565b60405180910390fd5b60008251116101a0576040517f08c379a00000000000000000000000000000000000000000000000000000000081526004016101979061109a565b60405180910390fd5b60008151116101e4576040517f08c379a00000000000000000000000000000000000000000000000000000000081526004016101db906110da565b60405180910390fd5b600015156000803373ffffffffffffffffffffffffffffffffffffffff1673ffffffffffffffffffffffffffffffffffffffff16815260200190815260200160002060000160009054906101000a900460ff16151514610279576040517f08c379a00000000000000000000000000000000000000000000000000000000081526004016102709061113a565b60405180910390fd5b6040518060c001604052806000151581526020018381526020018281526020016040518060200160405280600081525081526020016000815260200160008152506000803373ffffffffffffffffffffffffffffffffffffffff1673ffffffffffffffffffffffffffffffffffffffff16815260200190815260200160002060008201518160000160006101000a81548160ff0219169083151502179055506020820151816001019080519060200190610334929190610a17565b506040820151816002019080519060200190610351929190610a17565b50606082015181600301908051906020019061036e929190610a17565b506080820151816004015560a082015181600501559050503373ffffffffffffffffffffffffffffffffffffffff167f91430230f1ababcaa71d1943ca9cdcdc7240252c0f87794d870d26fccbfb39818360006040516103cf92919061106a565b60405180910390a25050565b600085511161041f576040517f08c379a00000000000000000000000000000000000000000000000000000000081526004016104169061109a565b60405180910390fd5b6000845111610463576040517f08c379a000000000000000000000000000000000000000000000000000000000815260040161045a906110da565b60405180910390fd5b60008351116104a7576040517f08c379a000000000000000000000000000000000000000000000000000000000815260040161049e906110ba565b60405180910390fd5b600082116104ea576040517f08c379a00000000000000000000000000000000000000000000000000000000081526004016104e19061111a565b60405180910390fd5b6000811161052d576040517f08c379a00000000000000000000000000000000000000000000000000000000081526004016105249061117a565b60405180910390fd5b600015156000803373ffffffffffffffffffffffffffffffffffffffff1673ffffffffffffffffffffffffffffffffffffffff16815260200190815260200160002060000160009054906101000a900460ff161515146105c2576040517f08c379a00000000000000000000000000000000000000000000000000000000081526004016105b99061115a565b60405180910390fd5b6040518060c00160405280600115158152602001868152602001858152602001848152602001838152602001828152506000803373ffffffffffffffffffffffffffffffffffffffff1673ffffffffffffffffffffffffffffffffffffffff16815260200190815260200160002060008201518160000160006101000a81548160ff021916908315150217905550602082015181600101908051906020019061066c929190610a17565b506040820151816002019080519060200190610689929190610a17565b5060608201518160030190805190602001906106a6929190610a17565b506080820151816004015560a082015181600501559050503373ffffffffffffffffffffffffffffffffffffffff167f91430230f1ababcaa71d1943ca9cdcdc7240252c0f87794d870d26fccbfb398186600160405161070792919061106a565b60405180910390a25050505050565b60008083511161075b576040517f08c379a00000000000000000000000000000000000000000000000000000000081526004016107529061109a565b60405180910390fd5b600082511161079f576040517f08c379a0000000000000000000000000000000000000000000000000000000008152600401610796906110da565b60405180910390fd5b60008060003373ffffffffffffffffffffffffffffffffffffffff1673ffffffffffffffffffffffffffffffffffffffff16815260200190815260200160002090508380519060200120816001016040516107fa9190610fc2565b604051809103902014801561082d57508280519060200120816002016040516108239190610fc2565b6040518091039020145b91505092915050565b60006020528060005260406000206000915090508060000160009054906101000a900460ff169080600101805461086c906112c1565b80601f0160208091040260200160405190810160405280929190818152602001828054610898906112c1565b80156108e55780601f106108ba576101008083540402835291602001916108e5565b820191906000526020600020905b8154815290600101906020018083116108c857829003601f168201915b5050505050908060020180546108fa906112c1565b80601f0160208091040260200160405190810160405280929190818152602001828054610926906112c1565b80156109735780601f1061094857610100808354040283529160200191610973565b820191906000526020600020905b81548152906001019060200180831161095657829003601f168201915b505050505090806003018054610988906112c1565b80601f01602080910402602001604051908101604052809291908181526020018280546109b4906112c1565b8015610a015780601f106109d657610100808354040283529160200191610a01565b820191906000526020600020905b8154815290600101906020018083116109e457829003601f168201915b5050505050908060040154908060050154905086565b828054610a23906112c1565b90600052602060002090601f016020900481019282610a455760008555610a8c565b82601f10610a5e57805160ff1916838001178555610a8c565b82800160010185558215610a8c579182015b82811115610a8b578251825591602001919060010190610a70565b5b509050610a999190610a9d565b5090565b5b80821115610ab6576000816000905550600101610a9e565b5090565b6000610acd610ac8846111cb565b61119a565b905082815260208101848484011115610ae557600080fd5b610af084828561127f565b509392505050565b600081359050610b0781611362565b92915050565b600082601f830112610b1e57600080fd5b8135610b2e848260208601610aba565b91505092915050565b600081359050610b4681611379565b92915050565b600060208284031215610b5e57600080fd5b6000610b6c84828501610af8565b91505092915050565b60008060408385031215610b8857600080fd5b600083013567ffffffffffffffff811115610ba257600080fd5b610bae85828601610b0d565b925050602083013567ffffffffffffffff811115610bcb57600080fd5b610bd785828601610b0d565b9150509250929050565b600080600080600060a08688031215610bf957600080fd5b600086013567ffffffffffffffff811115610c1357600080fd5b610c1f88828901610b0d565b955050602086013567ffffffffffffffff811115610c3c57600080fd5b610c4888828901610b0d565b945050604086013567ffffffffffffffff811115610c6557600080fd5b610c7188828901610b0d565b9350506060610c8288828901610b37565b9250506080610c9388828901610b37565b9150509295509295909350565b610ca981611249565b82525050565b60008154610cbc816112c1565b610cc6818661121b565b94506001821660008114610ce15760018114610cf257610d25565b60ff19831686528186019350610d25565b610cfb856111fb565b60005b83811015610d1d57815481890152600182019150602081019050610cfe565b838801955050505b50505092915050565b6000610d3982611210565b610d438185611226565b9350610d5381856020860161128e565b610d5c81611351565b840191505092915050565b6000610d74601883611226565b91507f557365726e616d652063616e6e6f7420626520656d70747900000000000000006000830152602082019050919050565b6000610db4602083611226565b91507f43617220726567697374726174696f6e2063616e6e6f7420626520656d7074796000830152602082019050919050565b6000610df4601883611226565b91507f50617373776f72642063616e6e6f7420626520656d70747900000000000000006000830152602082019050919050565b6000610e34600e83611226565b91507f496e76616c69642073656e6465720000000000000000000000000000000000006000830152602082019050919050565b6000610e74602683611226565b91507f4e756d626572206f66207365617473206d75737420626520677265617465722060008301527f7468616e203000000000000000000000000000000000000000000000000000006020830152604082019050919050565b6000610eda601d83611226565b91507f416c7265616479207369676e65642075702061732061206472697665720000006000830152602082019050919050565b6000610f1a601f83611226565b91507f416c7265616479207369676e6564207570206173206120637573746f6d6572006000830152602082019050919050565b6000610f5a602183611226565b91507f53656174207072696365206d7573742062652067726561746572207468616e2060008301527f30000000000000000000000000000000000000000000000000000000000000006020830152604082019050919050565b610fbc81611275565b82525050565b6000610fce8284610caf565b915081905092915050565b6000602082019050610fee6000830184610ca0565b92915050565b600060c0820190506110096000830189610ca0565b818103602083015261101b8188610d2e565b9050818103604083015261102f8187610d2e565b905081810360608301526110438186610d2e565b90506110526080830185610fb3565b61105f60a0830184610fb3565b979650505050505050565b600060408201905081810360008301526110848185610d2e565b90506110936020830184610ca0565b9392505050565b600060208201905081810360008301526110b381610d67565b9050919050565b600060208201905081810360008301526110d381610da7565b9050919050565b600060208201905081810360008301526110f381610de7565b9050919050565b6000602082019050818103600083015261111381610e27565b9050919050565b6000602082019050818103600083015261113381610e67565b9050919050565b6000602082019050818103600083015261115381610ecd565b9050919050565b6000602082019050818103600083015261117381610f0d565b9050919050565b6000602082019050818103600083015261119381610f4d565b9050919050565b6000604051905081810181811067ffffffffffffffff821117156111c1576111c0611322565b5b8060405250919050565b600067ffffffffffffffff8211156111e6576111e5611322565b5b601f19601f8301169050602081019050919050565b60008190508160005260206000209050919050565b600081519050919050565b600081905092915050565b600082825260208201905092915050565b600061124282611255565b9050919050565b60008115159050919050565b600073ffffffffffffffffffffffffffffffffffffffff82169050919050565b6000819050919050565b82818337600083830152505050565b60005b838110156112ac578082015181840152602081019050611291565b838111156112bb576000848401525b50505050565b600060028204905060018216806112d957607f821691505b602082108114156112ed576112ec6112f3565b5b50919050565b7f4e487b7100000000000000000000000000000000000000000000000000000000600052602260045260246000fd5b7f4e487b7100000000000000000000000000000000000000000000000000000000600052604160045260246000fd5b6000601f19601f8301169050919050565b61136b81611237565b811461137657600080fd5b50565b61138281611275565b811461138d57600080fd5b5056fea2646970667358221220b12300fcb0e4972b88b6875f7dada927d658beee60cc7f6650c8170c32ef15d564736f6c63430008000033",
  "immutableReferences": {},
  "source": "// SPDX-License-Identifier: MIT\npragma solidity ^0.8.0;\n\ncontract RideShareConnect {\n    // Define a struct to represent user data\n    struct User {\n        bool isDriver;\n        string username;\n        string password; // Note: In a production environment, passwords should be securely hashed.\n        string carRegistration;\n        uint256 numberOfSeats;\n        uint256 seatPrice;\n    }\n\n    // Mapping to store user data\n    mapping(address => User) public users;\n\n    // Event to log user signup\n    event UserSignup(address indexed userAddress, string username, bool isDriver);\n\n    // Function to sign up as a customer\n    function signupCustomer(string memory _username, string memory _password) public {\n        // Check if the sender's address matches the MetaMask account\n        require(msg.sender == tx.origin, \"Invalid sender\");\n        // The rest of the logic\n        require(bytes(_username).length > 0, \"Username cannot be empty\");\n        require(bytes(_password).length > 0, \"Password cannot be empty\");\n        require(users[msg.sender].isDriver == false, \"Already signed up as a driver\");\n\n        users[msg.sender] = User({\n            isDriver: false,\n            username: _username,\n            password: _password,\n            carRegistration: \"\",\n            numberOfSeats: 0,\n            seatPrice: 0\n        });\n\n        emit UserSignup(msg.sender, _username, false);\n    }\n\n    // Function to sign up as a driver\n    function signupDriver(\n        string memory _username,\n        string memory _password,\n        string memory _carRegistration,\n        uint256 _numberOfSeats,\n        uint256 _seatPrice\n    ) public {\n        require(bytes(_username).length > 0, \"Username cannot be empty\");\n        require(bytes(_password).length > 0, \"Password cannot be empty\");\n        require(bytes(_carRegistration).length > 0, \"Car registration cannot be empty\");\n        require(_numberOfSeats > 0, \"Number of seats must be greater than 0\");\n        require(_seatPrice > 0, \"Seat price must be greater than 0\");\n        require(users[msg.sender].isDriver == false, \"Already signed up as a customer\");\n\n        users[msg.sender] = User({\n            isDriver: true,\n            username: _username,\n            password: _password,\n            carRegistration: _carRegistration,\n            numberOfSeats: _numberOfSeats,\n            seatPrice: _seatPrice\n        });\n\n        emit UserSignup(msg.sender, _username, true);\n    }\n\n    // Function to sign in\n    function signin(string memory _username, string memory _password) public view returns (bool) {\n        require(bytes(_username).length > 0, \"Username cannot be empty\");\n        require(bytes(_password).length > 0, \"Password cannot be empty\");\n\n        User storage user = users[msg.sender];\n        return keccak256(bytes(user.username)) == keccak256(bytes(_username)) &&\n               keccak256(bytes(user.password)) == keccak256(bytes(_password));\n    }\n}\n",
  "sourcePath": "/home/fatima/RideShare-Connect/contracts/RideShareConnect.sol",
  "compiler": {
    "name": "solc",
    "version": "0.8.0+commit.c7dfd78e.Emscripten.clang"
  },
  "schemaVersion": "3.4.16",
  "updatedAt": "2023-12-01T20:45:25.999Z",
  "networkType": "ethereum",
  "devdoc": {
    "kind": "dev",
    "methods": {},
    "version": 1
  },
  "userdoc": {
    "kind": "user",
    "methods": {},
    "version": 1
  }
}