{
  "contractName": "RideShareConnect",
  "abi": [
    {
      "anonymous": false,
      "inputs": [
        {
          "indexed": false,
          "internalType": "uint256",
          "name": "rideID",
          "type": "uint256"
        },
        {
          "indexed": false,
          "internalType": "string",
          "name": "",
          "type": "string"
        },
        {
          "indexed": false,
          "internalType": "uint256",
          "name": "seatsBooked",
          "type": "uint256"
        }
      ],
      "name": "RideBooked",
      "type": "event"
    },
    {
      "anonymous": false,
      "inputs": [
        {
          "indexed": false,
          "internalType": "uint256",
          "name": "rideID",
          "type": "uint256"
        },
        {
          "indexed": false,
          "internalType": "string",
          "name": "driverID",
          "type": "string"
        }
      ],
      "name": "RideStarted",
      "type": "event"
    },
    {
      "anonymous": false,
      "inputs": [
        {
          "indexed": true,
          "internalType": "address",
          "name": "userAddress",
          "type": "address"
        },
        {
          "indexed": false,
          "internalType": "string",
          "name": "username",
          "type": "string"
        },
        {
          "indexed": false,
          "internalType": "bool",
          "name": "isDriver",
          "type": "bool"
        }
      ],
      "name": "UserSignup",
      "type": "event"
    },
    {
      "inputs": [
        {
          "internalType": "uint256",
          "name": "",
          "type": "uint256"
        }
      ],
      "name": "rides",
      "outputs": [
        {
          "internalType": "uint256",
          "name": "rideID",
          "type": "uint256"
        },
        {
          "internalType": "string",
          "name": "driverID",
          "type": "string"
        },
        {
          "internalType": "bool",
          "name": "isGoing",
          "type": "bool"
        }
      ],
      "stateMutability": "view",
      "type": "function",
      "constant": true
    },
    {
      "inputs": [
        {
          "internalType": "address",
          "name": "",
          "type": "address"
        }
      ],
      "name": "users",
      "outputs": [
        {
          "internalType": "bool",
          "name": "isDriver",
          "type": "bool"
        },
        {
          "internalType": "string",
          "name": "username",
          "type": "string"
        },
        {
          "internalType": "string",
          "name": "password",
          "type": "string"
        },
        {
          "internalType": "string",
          "name": "carRegistration",
          "type": "string"
        },
        {
          "internalType": "uint256",
          "name": "numberOfSeats",
          "type": "uint256"
        },
        {
          "internalType": "uint256",
          "name": "seatPrice",
          "type": "uint256"
        }
      ],
      "stateMutability": "view",
      "type": "function",
      "constant": true
    },
    {
      "inputs": [
        {
          "internalType": "string",
          "name": "_username",
          "type": "string"
        },
        {
          "internalType": "string",
          "name": "_password",
          "type": "string"
        }
      ],
      "name": "signupCustomer",
      "outputs": [],
      "stateMutability": "nonpayable",
      "type": "function"
    },
    {
      "inputs": [
        {
          "internalType": "string",
          "name": "_username",
          "type": "string"
        },
        {
          "internalType": "string",
          "name": "_carRegistration",
          "type": "string"
        },
        {
          "internalType": "uint256",
          "name": "_numberOfSeats",
          "type": "uint256"
        },
        {
          "internalType": "uint256",
          "name": "_seatPrice",
          "type": "uint256"
        }
      ],
      "name": "startRide",
      "outputs": [],
      "stateMutability": "nonpayable",
      "type": "function"
    },
    {
      "inputs": [
        {
          "internalType": "string",
          "name": "_username",
          "type": "string"
        },
        {
          "internalType": "uint256",
          "name": "_seatsRequired",
          "type": "uint256"
        },
        {
          "internalType": "uint256",
          "name": "_rideID",
          "type": "uint256"
        }
      ],
      "name": "bookRide",
      "outputs": [],
      "stateMutability": "nonpayable",
      "type": "function"
    },
    {
      "inputs": [
        {
          "internalType": "string",
          "name": "_username",
          "type": "string"
        },
        {
          "internalType": "string",
          "name": "_password",
          "type": "string"
        }
      ],
      "name": "signin",
      "outputs": [
        {
          "internalType": "bool",
          "name": "",
          "type": "bool"
        }
      ],
      "stateMutability": "view",
      "type": "function",
      "constant": true
    }
  ],
  "bytecode": "0x608060405234801561001057600080fd5b5061177b806100206000396000f3fe608060405234801561001057600080fd5b50600436106100625760003560e01c80631a6090c414610067578063513aa3dc146100835780635205f1121461009f57806394b60e98146100d1578063990a4a9a146100ed578063a87430ba1461011d575b600080fd5b610081600480360381019061007c9190610ebe565b610152565b005b61009d60048036038101906100989190610dbf565b610219565b005b6100b960048036038101906100b49190610f25565b610403565b6040516100c893929190611498565b60405180910390f35b6100eb60048036038101906100e69190610e2b565b6104c2565b005b61010760048036038101906101029190610dbf565b610960565b60405161011491906112c7565b60405180910390f35b61013760048036038101906101329190610d96565b610a80565b604051610149969594939291906112e2565b60405180910390f35b6000835111610196576040517f08c379a000000000000000000000000000000000000000000000000000000000815260040161018d90611388565b60405180910390fd5b600082116101d9576040517f08c379a00000000000000000000000000000000000000000000000000000000081526004016101d090611448565b60405180910390fd5b7f6f93b915235c22897b5a1374b76f25aea12239a3963c5999345d688ead694a6181848460405161020c939291906114d6565b60405180910390a1505050565b600082511161025d576040517f08c379a000000000000000000000000000000000000000000000000000000000815260040161025490611388565b60405180910390fd5b60008151116102a1576040517f08c379a0000000000000000000000000000000000000000000000000000000008152600401610298906113c8565b60405180910390fd5b6040518060c001604052806000151581526020018381526020018281526020016040518060200160405280600081525081526020016000815260200160008152506000803373ffffffffffffffffffffffffffffffffffffffff1673ffffffffffffffffffffffffffffffffffffffff16815260200190815260200160002060008201518160000160006101000a81548160ff021916908315150217905550602082015181600101908051906020019061035c929190610c61565b506040820151816002019080519060200190610379929190610c61565b506060820151816003019080519060200190610396929190610c61565b506080820151816004015560a082015181600501559050503373ffffffffffffffffffffffffffffffffffffffff167f91430230f1ababcaa71d1943ca9cdcdc7240252c0f87794d870d26fccbfb39818360006040516103f7929190611358565b60405180910390a25050565b600160205280600052604060002060009150905080600001549080600101805461042c9061163b565b80601f01602080910402602001604051908101604052809291908181526020018280546104589061163b565b80156104a55780601f1061047a576101008083540402835291602001916104a5565b820191906000526020600020905b81548152906001019060200180831161048857829003601f168201915b5050505050908060020160009054906101000a900460ff16905083565b6000845111610506576040517f08c379a00000000000000000000000000000000000000000000000000000000081526004016104fd90611388565b60405180910390fd5b600083511161054a576040517f08c379a0000000000000000000000000000000000000000000000000000000008152600401610541906113a8565b60405180910390fd5b6000821161058d576040517f08c379a0000000000000000000000000000000000000000000000000000000008152600401610584906113e8565b60405180910390fd5b600081116105d0576040517f08c379a00000000000000000000000000000000000000000000000000000000081526004016105c790611428565b60405180910390fd5b6000803373ffffffffffffffffffffffffffffffffffffffff1673ffffffffffffffffffffffffffffffffffffffff16815260200190815260200160002060000160009054906101000a900460ff161561065f576040517f08c379a000000000000000000000000000000000000000000000000000000000815260040161065690611408565b60405180910390fd5b6040518060c001604052806001151581526020018581526020016000803373ffffffffffffffffffffffffffffffffffffffff1673ffffffffffffffffffffffffffffffffffffffff16815260200190815260200160002060020180546106c59061163b565b80601f01602080910402602001604051908101604052809291908181526020018280546106f19061163b565b801561073e5780601f106107135761010080835404028352916020019161073e565b820191906000526020600020905b81548152906001019060200180831161072157829003601f168201915b50505050508152602001848152602001838152602001828152506000803373ffffffffffffffffffffffffffffffffffffffff1673ffffffffffffffffffffffffffffffffffffffff16815260200190815260200160002060008201518160000160006101000a81548160ff02191690831515021790555060208201518160010190805190602001906107d2929190610c61565b5060408201518160020190805190602001906107ef929190610c61565b50606082015181600301908051906020019061080c929190610c61565b506080820151816004015560a082015181600501559050506000423360405160200161083992919061129b565b6040516020818303038152906040528051906020012060001c9050604051806060016040528082815260200186815260200160001515815250600160008381526020019081526020016000206000820151816000015560208201518160010190805190602001906108ab929190610c61565b5060408201518160020160006101000a81548160ff0219169083151502179055509050503373ffffffffffffffffffffffffffffffffffffffff167f91430230f1ababcaa71d1943ca9cdcdc7240252c0f87794d870d26fccbfb3981866001604051610918929190611358565b60405180910390a27f4315f676a3514f2b5a10f1259a8760562e5868752ce7f844be75139e0ac128268186604051610951929190611468565b60405180910390a15050505050565b6000808351116109a5576040517f08c379a000000000000000000000000000000000000000000000000000000000815260040161099c90611388565b60405180910390fd5b60008251116109e9576040517f08c379a00000000000000000000000000000000000000000000000000000000081526004016109e0906113c8565b60405180910390fd5b60008060003373ffffffffffffffffffffffffffffffffffffffff1673ffffffffffffffffffffffffffffffffffffffff1681526020019081526020016000209050838051906020012081600101604051610a449190611284565b6040518091039020148015610a775750828051906020012081600201604051610a6d9190611284565b6040518091039020145b91505092915050565b60006020528060005260406000206000915090508060000160009054906101000a900460ff1690806001018054610ab69061163b565b80601f0160208091040260200160405190810160405280929190818152602001828054610ae29061163b565b8015610b2f5780601f10610b0457610100808354040283529160200191610b2f565b820191906000526020600020905b815481529060010190602001808311610b1257829003601f168201915b505050505090806002018054610b449061163b565b80601f0160208091040260200160405190810160405280929190818152602001828054610b709061163b565b8015610bbd5780601f10610b9257610100808354040283529160200191610bbd565b820191906000526020600020905b815481529060010190602001808311610ba057829003601f168201915b505050505090806003018054610bd29061163b565b80601f0160208091040260200160405190810160405280929190818152602001828054610bfe9061163b565b8015610c4b5780601f10610c2057610100808354040283529160200191610c4b565b820191906000526020600020905b815481529060010190602001808311610c2e57829003601f168201915b5050505050908060040154908060050154905086565b828054610c6d9061163b565b90600052602060002090601f016020900481019282610c8f5760008555610cd6565b82601f10610ca857805160ff1916838001178555610cd6565b82800160010185558215610cd6579182015b82811115610cd5578251825591602001919060010190610cba565b5b509050610ce39190610ce7565b5090565b5b80821115610d00576000816000905550600101610ce8565b5090565b6000610d17610d1284611545565b611514565b905082815260208101848484011115610d2f57600080fd5b610d3a8482856115f9565b509392505050565b600081359050610d5181611717565b92915050565b600082601f830112610d6857600080fd5b8135610d78848260208601610d04565b91505092915050565b600081359050610d908161172e565b92915050565b600060208284031215610da857600080fd5b6000610db684828501610d42565b91505092915050565b60008060408385031215610dd257600080fd5b600083013567ffffffffffffffff811115610dec57600080fd5b610df885828601610d57565b925050602083013567ffffffffffffffff811115610e1557600080fd5b610e2185828601610d57565b9150509250929050565b60008060008060808587031215610e4157600080fd5b600085013567ffffffffffffffff811115610e5b57600080fd5b610e6787828801610d57565b945050602085013567ffffffffffffffff811115610e8457600080fd5b610e9087828801610d57565b9350506040610ea187828801610d81565b9250506060610eb287828801610d81565b91505092959194509250565b600080600060608486031215610ed357600080fd5b600084013567ffffffffffffffff811115610eed57600080fd5b610ef986828701610d57565b9350506020610f0a86828701610d81565b9250506040610f1b86828701610d81565b9150509250925092565b600060208284031215610f3757600080fd5b6000610f4584828501610d81565b91505092915050565b610f5f610f5a826115b1565b61166d565b82525050565b610f6e816115c3565b82525050565b60008154610f818161163b565b610f8b8186611595565b94506001821660008114610fa65760018114610fb757610fea565b60ff19831686528186019350610fea565b610fc085611575565b60005b83811015610fe257815481890152600182019150602081019050610fc3565b838801955050505b50505092915050565b6000610ffe8261158a565b61100881856115a0565b9350611018818560208601611608565b611021816116f9565b840191505092915050565b60006110396018836115a0565b91507f557365726e616d652063616e6e6f7420626520656d70747900000000000000006000830152602082019050919050565b60006110796020836115a0565b91507f43617220726567697374726174696f6e2063616e6e6f7420626520656d7074796000830152602082019050919050565b60006110b96018836115a0565b91507f50617373776f72642063616e6e6f7420626520656d70747900000000000000006000830152602082019050919050565b60006110f96026836115a0565b91507f4e756d626572206f66207365617473206d75737420626520677265617465722060008301527f7468616e203000000000000000000000000000000000000000000000000000006020830152604082019050919050565b600061115f6018836115a0565b91507f5573657220697320616c726561647920612064726976657200000000000000006000830152602082019050919050565b600061119f6021836115a0565b91507f53656174207072696365206d7573742062652067726561746572207468616e2060008301527f30000000000000000000000000000000000000000000000000000000000000006020830152604082019050919050565b6000611205602f836115a0565b91507f4e756d626572206f66207365617473207265717569726564206d75737420626560008301527f2067726561746572207468616e203000000000000000000000000000000000006020830152604082019050919050565b611267816115ef565b82525050565b61127e611279826115ef565b611691565b82525050565b60006112908284610f74565b915081905092915050565b60006112a7828561126d565b6020820191506112b78284610f4e565b6014820191508190509392505050565b60006020820190506112dc6000830184610f65565b92915050565b600060c0820190506112f76000830189610f65565b81810360208301526113098188610ff3565b9050818103604083015261131d8187610ff3565b905081810360608301526113318186610ff3565b9050611340608083018561125e565b61134d60a083018461125e565b979650505050505050565b600060408201905081810360008301526113728185610ff3565b90506113816020830184610f65565b9392505050565b600060208201905081810360008301526113a18161102c565b9050919050565b600060208201905081810360008301526113c18161106c565b9050919050565b600060208201905081810360008301526113e1816110ac565b9050919050565b60006020820190508181036000830152611401816110ec565b9050919050565b6000602082019050818103600083015261142181611152565b9050919050565b6000602082019050818103600083015261144181611192565b9050919050565b60006020820190508181036000830152611461816111f8565b9050919050565b600060408201905061147d600083018561125e565b818103602083015261148f8184610ff3565b90509392505050565b60006060820190506114ad600083018661125e565b81810360208301526114bf8185610ff3565b90506114ce6040830184610f65565b949350505050565b60006060820190506114eb600083018661125e565b81810360208301526114fd8185610ff3565b905061150c604083018461125e565b949350505050565b6000604051905081810181811067ffffffffffffffff8211171561153b5761153a6116ca565b5b8060405250919050565b600067ffffffffffffffff8211156115605761155f6116ca565b5b601f19601f8301169050602081019050919050565b60008190508160005260206000209050919050565b600081519050919050565b600081905092915050565b600082825260208201905092915050565b60006115bc826115cf565b9050919050565b60008115159050919050565b600073ffffffffffffffffffffffffffffffffffffffff82169050919050565b6000819050919050565b82818337600083830152505050565b60005b8381101561162657808201518184015260208101905061160b565b83811115611635576000848401525b50505050565b6000600282049050600182168061165357607f821691505b602082108114156116675761166661169b565b5b50919050565b60006116788261167f565b9050919050565b600061168a8261170a565b9050919050565b6000819050919050565b7f4e487b7100000000000000000000000000000000000000000000000000000000600052602260045260246000fd5b7f4e487b7100000000000000000000000000000000000000000000000000000000600052604160045260246000fd5b6000601f19601f8301169050919050565b60008160601b9050919050565b611720816115b1565b811461172b57600080fd5b50565b611737816115ef565b811461174257600080fd5b5056fea2646970667358221220ffcd388c2de73bf50f2781f0480e74c99f00ff3dfbefe7e6657596d3f67a8dd764736f6c63430008000033",
  "immutableReferences": {},
  "source": "// SPDX-License-Identifier: MIT\npragma solidity ^0.8.0;\n\ncontract RideShareConnect {\n    // Define a struct to represent user data\n    struct User {\n        bool isDriver;\n        string username;\n        string password;\n        string carRegistration;\n        uint256 numberOfSeats;\n        uint256 seatPrice;\n    }\n\n    // Define a struct to represent ride data\n    struct Ride {\n        uint256 rideID;\n        string driverID;\n        bool isGoing;\n    }\n\n    // Mapping to store user data\n    mapping(address => User) public users;\n\n    // Mapping to store ride data\n    mapping(uint256 => Ride) public rides;\n\n    // Event to log user signup\n    event UserSignup(\n        address indexed userAddress,\n        string username,\n        bool isDriver\n    );\n\n    // Event to log ride start\n    event RideStarted(uint256 rideID, string driverID);\n\n    /// Function to sign up as a customer\n    function signupCustomer(\n        string memory _username,\n        string memory _password\n    ) public {\n        require(bytes(_username).length > 0, \"Username cannot be empty\");\n        require(bytes(_password).length > 0, \"Password cannot be empty\");\n\n        users[msg.sender] = User({\n            isDriver: false,\n            username: _username,\n            password: _password,\n            carRegistration: \"\",\n            numberOfSeats: 0,\n            seatPrice: 0\n        });\n\n        emit UserSignup(msg.sender, _username, false);\n    }\n\n    /// Function to start a ride as a driver\n    function startRide(\n        string memory _username,\n        string memory _carRegistration,\n        uint256 _numberOfSeats,\n        uint256 _seatPrice\n    ) public {\n        require(bytes(_username).length > 0, \"Username cannot be empty\");\n        require(\n            bytes(_carRegistration).length > 0,\n            \"Car registration cannot be empty\"\n        );\n        require(_numberOfSeats > 0, \"Number of seats must be greater than 0\");\n        require(_seatPrice > 0, \"Seat price must be greater than 0\");\n        require(!users[msg.sender].isDriver, \"User is already a driver\");\n\n        users[msg.sender] = User({\n            isDriver: true,\n            username: _username,\n            password: users[msg.sender].password,\n            carRegistration: _carRegistration,\n            numberOfSeats: _numberOfSeats,\n            seatPrice: _seatPrice\n        });\n\n        uint256 rideID = uint256(\n            keccak256(abi.encodePacked(block.timestamp, msg.sender))\n        );\n        rides[rideID] = Ride({\n            rideID: rideID,\n            driverID: _username,\n            isGoing: false\n        });\n\n        emit UserSignup(msg.sender, _username, true);\n        emit RideStarted(rideID, _username);\n    }\n\n    // Event to log ride booking\n    event RideBooked(uint256 rideID, string, uint256 seatsBooked);\n\n    /// Function to book a ride\n    function bookRide(\n        string memory _username,\n        uint256 _seatsRequired,\n        uint256 _rideID\n    ) public {\n        require(bytes(_username).length > 0, \"Username cannot be empty\");\n        require(\n            _seatsRequired > 0,\n            \"Number of seats required must be greater than 0\"\n        );\n\n        // Ensure the user is a customer (not a driver)\n        // require(!users[msg.sender].isDriver, \"Drivers cannot book rides\");\n\n        // Get ride details\n        // Ride storage ride = rides[_rideID];\n\n        // Ensure the ride exists and is not already booked\n        // require(ride.rideID != 0, \"Ride does not exist\");\n        // require(!ride.isGoing, \"Ride is already booked\");\n\n        // Ensure there are enough available seats\n        // require(\n        //     _seatsRequired <= users[msg.sender].numberOfSeats,\n        //     \"Not enough available seats\"\n        // );\n\n        // Book the ride\n        // ride.isGoing = true;\n\n        // Emit event for ride booking\n        emit RideBooked(_rideID, _username, _seatsRequired);\n    }\n\n    // Function to sign in\n    function signin(\n        string memory _username,\n        string memory _password\n    ) public view returns (bool) {\n        require(bytes(_username).length > 0, \"Username cannot be empty\");\n        require(bytes(_password).length > 0, \"Password cannot be empty\");\n\n        User storage user = users[msg.sender];\n        return\n            keccak256(bytes(user.username)) == keccak256(bytes(_username)) &&\n            keccak256(bytes(user.password)) == keccak256(bytes(_password));\n    }\n}\n",
  "sourcePath": "/home/anas/Documents/RideShare-Connect/contracts/RideShareConnect.sol",
  "compiler": {
    "name": "solc",
    "version": "0.8.0+commit.c7dfd78e.Emscripten.clang"
  },
  "schemaVersion": "3.4.16",
  "updatedAt": "2023-12-10T14:30:37.684Z",
  "networkType": "ethereum",
  "devdoc": {
    "kind": "dev",
    "methods": {},
    "version": 1
  },
  "userdoc": {
    "kind": "user",
    "methods": {
      "bookRide(string,uint256,uint256)": {
        "notice": "Function to book a ride"
      },
      "signupCustomer(string,string)": {
        "notice": "Function to sign up as a customer"
      },
      "startRide(string,string,uint256,uint256)": {
        "notice": "Function to start a ride as a driver"
      }
    },
    "version": 1
  }
}