{
  "contractName": "RideShareConnect",
  "abi": [
    {
      "anonymous": false,
      "inputs": [
        {
          "indexed": true,
          "internalType": "address",
          "name": "userAddress",
          "type": "address"
        },
        {
          "indexed": false,
          "internalType": "string",
          "name": "username",
          "type": "string"
        },
        {
          "indexed": false,
          "internalType": "bool",
          "name": "isDriver",
          "type": "bool"
        }
      ],
      "name": "UserSignup",
      "type": "event"
    },
    {
      "inputs": [
        {
          "internalType": "address",
          "name": "",
          "type": "address"
        }
      ],
      "name": "users",
      "outputs": [
        {
          "internalType": "bool",
          "name": "isDriver",
          "type": "bool"
        },
        {
          "internalType": "string",
          "name": "username",
          "type": "string"
        },
        {
          "internalType": "string",
          "name": "password",
          "type": "string"
        },
        {
          "internalType": "string",
          "name": "carRegistration",
          "type": "string"
        },
        {
          "internalType": "uint256",
          "name": "numberOfSeats",
          "type": "uint256"
        },
        {
          "internalType": "uint256",
          "name": "seatPrice",
          "type": "uint256"
        }
      ],
      "stateMutability": "view",
      "type": "function",
      "constant": true
    },
    {
      "inputs": [
        {
          "internalType": "string",
          "name": "_username",
          "type": "string"
        },
        {
          "internalType": "string",
          "name": "_password",
          "type": "string"
        }
      ],
      "name": "signupCustomer",
      "outputs": [],
      "stateMutability": "nonpayable",
      "type": "function"
    },
    {
      "inputs": [
        {
          "internalType": "string",
          "name": "_username",
          "type": "string"
        },
        {
          "internalType": "string",
          "name": "_password",
          "type": "string"
        },
        {
          "internalType": "string",
          "name": "_carRegistration",
          "type": "string"
        },
        {
          "internalType": "uint256",
          "name": "_numberOfSeats",
          "type": "uint256"
        },
        {
          "internalType": "uint256",
          "name": "_seatPrice",
          "type": "uint256"
        }
      ],
      "name": "signupDriver",
      "outputs": [],
      "stateMutability": "nonpayable",
      "type": "function"
    },
    {
      "inputs": [
        {
          "internalType": "string",
          "name": "_username",
          "type": "string"
        },
        {
          "internalType": "string",
          "name": "_password",
          "type": "string"
        }
      ],
      "name": "signin",
      "outputs": [
        {
          "internalType": "bool",
          "name": "",
          "type": "bool"
        }
      ],
      "stateMutability": "view",
      "type": "function",
      "constant": true
    }
  ],
  "bytecode": "0x608060405234801561001057600080fd5b506112f8806100206000396000f3fe608060405234801561001057600080fd5b506004361061004c5760003560e01c8063513aa3dc1461005157806357e5b0981461006d578063990a4a9a14610089578063a87430ba146100b9575b600080fd5b61006b60048036038101906100669190610b07565b6100ee565b005b61008760048036038101906100829190610b73565b61036d565b005b6100a3600480360381019061009e9190610b07565b6106a8565b6040516100b09190610f2b565b60405180910390f35b6100d360048036038101906100ce9190610ade565b6107c8565b6040516100e596959493929190610f46565b60405180910390f35b6000825111610132576040517f08c379a000000000000000000000000000000000000000000000000000000000815260040161012990610fec565b60405180910390fd5b6000815111610176576040517f08c379a000000000000000000000000000000000000000000000000000000000815260040161016d9061102c565b60405180910390fd5b600015156000803373ffffffffffffffffffffffffffffffffffffffff1673ffffffffffffffffffffffffffffffffffffffff16815260200190815260200160002060000160009054906101000a900460ff1615151461020b576040517f08c379a00000000000000000000000000000000000000000000000000000000081526004016102029061106c565b60405180910390fd5b6040518060c001604052806000151581526020018381526020018281526020016040518060200160405280600081525081526020016000815260200160008152506000803373ffffffffffffffffffffffffffffffffffffffff1673ffffffffffffffffffffffffffffffffffffffff16815260200190815260200160002060008201518160000160006101000a81548160ff02191690831515021790555060208201518160010190805190602001906102c69291906109a9565b5060408201518160020190805190602001906102e39291906109a9565b5060608201518160030190805190602001906103009291906109a9565b506080820151816004015560a082015181600501559050503373ffffffffffffffffffffffffffffffffffffffff167f91430230f1ababcaa71d1943ca9cdcdc7240252c0f87794d870d26fccbfb3981836000604051610361929190610fbc565b60405180910390a25050565b60008551116103b1576040517f08c379a00000000000000000000000000000000000000000000000000000000081526004016103a890610fec565b60405180910390fd5b60008451116103f5576040517f08c379a00000000000000000000000000000000000000000000000000000000081526004016103ec9061102c565b60405180910390fd5b6000835111610439576040517f08c379a00000000000000000000000000000000000000000000000000000000081526004016104309061100c565b60405180910390fd5b6000821161047c576040517f08c379a00000000000000000000000000000000000000000000000000000000081526004016104739061104c565b60405180910390fd5b600081116104bf576040517f08c379a00000000000000000000000000000000000000000000000000000000081526004016104b6906110ac565b60405180910390fd5b600015156000803373ffffffffffffffffffffffffffffffffffffffff1673ffffffffffffffffffffffffffffffffffffffff16815260200190815260200160002060000160009054906101000a900460ff16151514610554576040517f08c379a000000000000000000000000000000000000000000000000000000000815260040161054b9061108c565b60405180910390fd5b6040518060c00160405280600115158152602001868152602001858152602001848152602001838152602001828152506000803373ffffffffffffffffffffffffffffffffffffffff1673ffffffffffffffffffffffffffffffffffffffff16815260200190815260200160002060008201518160000160006101000a81548160ff02191690831515021790555060208201518160010190805190602001906105fe9291906109a9565b50604082015181600201908051906020019061061b9291906109a9565b5060608201518160030190805190602001906106389291906109a9565b506080820151816004015560a082015181600501559050503373ffffffffffffffffffffffffffffffffffffffff167f91430230f1ababcaa71d1943ca9cdcdc7240252c0f87794d870d26fccbfb3981866001604051610699929190610fbc565b60405180910390a25050505050565b6000808351116106ed576040517f08c379a00000000000000000000000000000000000000000000000000000000081526004016106e490610fec565b60405180910390fd5b6000825111610731576040517f08c379a00000000000000000000000000000000000000000000000000000000081526004016107289061102c565b60405180910390fd5b60008060003373ffffffffffffffffffffffffffffffffffffffff1673ffffffffffffffffffffffffffffffffffffffff168152602001908152602001600020905083805190602001208160010160405161078c9190610f14565b60405180910390201480156107bf57508280519060200120816002016040516107b59190610f14565b6040518091039020145b91505092915050565b60006020528060005260406000206000915090508060000160009054906101000a900460ff16908060010180546107fe906111f3565b80601f016020809104026020016040519081016040528092919081815260200182805461082a906111f3565b80156108775780601f1061084c57610100808354040283529160200191610877565b820191906000526020600020905b81548152906001019060200180831161085a57829003601f168201915b50505050509080600201805461088c906111f3565b80601f01602080910402602001604051908101604052809291908181526020018280546108b8906111f3565b80156109055780601f106108da57610100808354040283529160200191610905565b820191906000526020600020905b8154815290600101906020018083116108e857829003601f168201915b50505050509080600301805461091a906111f3565b80601f0160208091040260200160405190810160405280929190818152602001828054610946906111f3565b80156109935780601f1061096857610100808354040283529160200191610993565b820191906000526020600020905b81548152906001019060200180831161097657829003601f168201915b5050505050908060040154908060050154905086565b8280546109b5906111f3565b90600052602060002090601f0160209004810192826109d75760008555610a1e565b82601f106109f057805160ff1916838001178555610a1e565b82800160010185558215610a1e579182015b82811115610a1d578251825591602001919060010190610a02565b5b509050610a2b9190610a2f565b5090565b5b80821115610a48576000816000905550600101610a30565b5090565b6000610a5f610a5a846110fd565b6110cc565b905082815260208101848484011115610a7757600080fd5b610a828482856111b1565b509392505050565b600081359050610a9981611294565b92915050565b600082601f830112610ab057600080fd5b8135610ac0848260208601610a4c565b91505092915050565b600081359050610ad8816112ab565b92915050565b600060208284031215610af057600080fd5b6000610afe84828501610a8a565b91505092915050565b60008060408385031215610b1a57600080fd5b600083013567ffffffffffffffff811115610b3457600080fd5b610b4085828601610a9f565b925050602083013567ffffffffffffffff811115610b5d57600080fd5b610b6985828601610a9f565b9150509250929050565b600080600080600060a08688031215610b8b57600080fd5b600086013567ffffffffffffffff811115610ba557600080fd5b610bb188828901610a9f565b955050602086013567ffffffffffffffff811115610bce57600080fd5b610bda88828901610a9f565b945050604086013567ffffffffffffffff811115610bf757600080fd5b610c0388828901610a9f565b9350506060610c1488828901610ac9565b9250506080610c2588828901610ac9565b9150509295509295909350565b610c3b8161117b565b82525050565b60008154610c4e816111f3565b610c58818661114d565b94506001821660008114610c735760018114610c8457610cb7565b60ff19831686528186019350610cb7565b610c8d8561112d565b60005b83811015610caf57815481890152600182019150602081019050610c90565b838801955050505b50505092915050565b6000610ccb82611142565b610cd58185611158565b9350610ce58185602086016111c0565b610cee81611283565b840191505092915050565b6000610d06601883611158565b91507f557365726e616d652063616e6e6f7420626520656d70747900000000000000006000830152602082019050919050565b6000610d46602083611158565b91507f43617220726567697374726174696f6e2063616e6e6f7420626520656d7074796000830152602082019050919050565b6000610d86601883611158565b91507f50617373776f72642063616e6e6f7420626520656d70747900000000000000006000830152602082019050919050565b6000610dc6602683611158565b91507f4e756d626572206f66207365617473206d75737420626520677265617465722060008301527f7468616e203000000000000000000000000000000000000000000000000000006020830152604082019050919050565b6000610e2c601d83611158565b91507f416c7265616479207369676e65642075702061732061206472697665720000006000830152602082019050919050565b6000610e6c601f83611158565b91507f416c7265616479207369676e6564207570206173206120637573746f6d6572006000830152602082019050919050565b6000610eac602183611158565b91507f53656174207072696365206d7573742062652067726561746572207468616e2060008301527f30000000000000000000000000000000000000000000000000000000000000006020830152604082019050919050565b610f0e816111a7565b82525050565b6000610f208284610c41565b915081905092915050565b6000602082019050610f406000830184610c32565b92915050565b600060c082019050610f5b6000830189610c32565b8181036020830152610f6d8188610cc0565b90508181036040830152610f818187610cc0565b90508181036060830152610f958186610cc0565b9050610fa46080830185610f05565b610fb160a0830184610f05565b979650505050505050565b60006040820190508181036000830152610fd68185610cc0565b9050610fe56020830184610c32565b9392505050565b6000602082019050818103600083015261100581610cf9565b9050919050565b6000602082019050818103600083015261102581610d39565b9050919050565b6000602082019050818103600083015261104581610d79565b9050919050565b6000602082019050818103600083015261106581610db9565b9050919050565b6000602082019050818103600083015261108581610e1f565b9050919050565b600060208201905081810360008301526110a581610e5f565b9050919050565b600060208201905081810360008301526110c581610e9f565b9050919050565b6000604051905081810181811067ffffffffffffffff821117156110f3576110f2611254565b5b8060405250919050565b600067ffffffffffffffff82111561111857611117611254565b5b601f19601f8301169050602081019050919050565b60008190508160005260206000209050919050565b600081519050919050565b600081905092915050565b600082825260208201905092915050565b600061117482611187565b9050919050565b60008115159050919050565b600073ffffffffffffffffffffffffffffffffffffffff82169050919050565b6000819050919050565b82818337600083830152505050565b60005b838110156111de5780820151818401526020810190506111c3565b838111156111ed576000848401525b50505050565b6000600282049050600182168061120b57607f821691505b6020821081141561121f5761121e611225565b5b50919050565b7f4e487b7100000000000000000000000000000000000000000000000000000000600052602260045260246000fd5b7f4e487b7100000000000000000000000000000000000000000000000000000000600052604160045260246000fd5b6000601f19601f8301169050919050565b61129d81611169565b81146112a857600080fd5b50565b6112b4816111a7565b81146112bf57600080fd5b5056fea2646970667358221220b4824876264bb111ef7a81a0afb79f03b8a071aa9bee8b16c9103fe220c2fa0464736f6c63430008000033",
  "immutableReferences": {},
  "source": "// SPDX-License-Identifier: MIT\npragma solidity ^0.8.0;\n\ncontract RideShareConnect {\n    // Define a struct to represent user data\n    struct User {\n        bool isDriver;\n        string username;\n        string password; // Note: In a production environment, passwords should be securely hashed.\n        string carRegistration;\n        uint256 numberOfSeats;\n        uint256 seatPrice;\n    }\n\n    // Mapping to store user data\n    mapping(address => User) public users;\n\n    // Event to log user signup\n    event UserSignup(address indexed userAddress, string username, bool isDriver);\n\n    // Function to sign up as a customer\n    function signupCustomer(string memory _username, string memory _password) public {\n        require(bytes(_username).length > 0, \"Username cannot be empty\");\n        require(bytes(_password).length > 0, \"Password cannot be empty\");\n        require(users[msg.sender].isDriver == false, \"Already signed up as a driver\");\n\n        users[msg.sender] = User({\n            isDriver: false,\n            username: _username,\n            password: _password,\n            carRegistration: \"\",\n            numberOfSeats: 0,\n            seatPrice: 0\n        });\n\n        emit UserSignup(msg.sender, _username, false);\n    }\n\n    // Function to sign up as a driver\n    function signupDriver(\n        string memory _username,\n        string memory _password,\n        string memory _carRegistration,\n        uint256 _numberOfSeats,\n        uint256 _seatPrice\n    ) public {\n        require(bytes(_username).length > 0, \"Username cannot be empty\");\n        require(bytes(_password).length > 0, \"Password cannot be empty\");\n        require(bytes(_carRegistration).length > 0, \"Car registration cannot be empty\");\n        require(_numberOfSeats > 0, \"Number of seats must be greater than 0\");\n        require(_seatPrice > 0, \"Seat price must be greater than 0\");\n        require(users[msg.sender].isDriver == false, \"Already signed up as a customer\");\n\n        users[msg.sender] = User({\n            isDriver: true,\n            username: _username,\n            password: _password,\n            carRegistration: _carRegistration,\n            numberOfSeats: _numberOfSeats,\n            seatPrice: _seatPrice\n        });\n\n        emit UserSignup(msg.sender, _username, true);\n    }\n\n    // Function to sign in\n    function signin(string memory _username, string memory _password) public view returns (bool) {\n        require(bytes(_username).length > 0, \"Username cannot be empty\");\n        require(bytes(_password).length > 0, \"Password cannot be empty\");\n\n        User storage user = users[msg.sender];\n        return keccak256(bytes(user.username)) == keccak256(bytes(_username)) &&\n               keccak256(bytes(user.password)) == keccak256(bytes(_password));\n    }\n}\n",
  "sourcePath": "/home/anas/Desktop/RideShare-Connect/contracts/RideShareConnect.sol",
  "compiler": {
    "name": "solc",
    "version": "0.8.0+commit.c7dfd78e.Emscripten.clang"
  },
  "schemaVersion": "3.4.16",
  "updatedAt": "2023-12-01T18:41:19.249Z",
  "networkType": "ethereum",
  "devdoc": {
    "kind": "dev",
    "methods": {},
    "version": 1
  },
  "userdoc": {
    "kind": "user",
    "methods": {},
    "version": 1
  }
}