{
  "contractName": "RideShareConnect",
  "abi": [
    {
      "inputs": [],
      "stateMutability": "nonpayable",
      "type": "constructor"
    },
    {
      "anonymous": false,
      "inputs": [
        {
          "indexed": false,
          "internalType": "uint256",
          "name": "rideId",
          "type": "uint256"
        },
        {
          "indexed": false,
          "internalType": "address",
          "name": "passenger",
          "type": "address"
        },
        {
          "indexed": false,
          "internalType": "uint256",
          "name": "seatPrice",
          "type": "uint256"
        }
      ],
      "name": "RideBooked",
      "type": "event"
    },
    {
      "anonymous": false,
      "inputs": [
        {
          "indexed": false,
          "internalType": "uint256",
          "name": "rideId",
          "type": "uint256"
        },
        {
          "indexed": false,
          "internalType": "address",
          "name": "driver",
          "type": "address"
        },
        {
          "indexed": false,
          "internalType": "uint256",
          "name": "totalEarned",
          "type": "uint256"
        }
      ],
      "name": "RideCompleted",
      "type": "event"
    },
    {
      "anonymous": false,
      "inputs": [
        {
          "indexed": false,
          "internalType": "uint256",
          "name": "rideId",
          "type": "uint256"
        },
        {
          "indexed": false,
          "internalType": "address",
          "name": "driver",
          "type": "address"
        },
        {
          "indexed": false,
          "internalType": "uint256",
          "name": "availableSeats",
          "type": "uint256"
        },
        {
          "indexed": false,
          "internalType": "uint256",
          "name": "seatPrice",
          "type": "uint256"
        }
      ],
      "name": "RideStarted",
      "type": "event"
    },
    {
      "inputs": [],
      "name": "owner",
      "outputs": [
        {
          "internalType": "address",
          "name": "",
          "type": "address"
        }
      ],
      "stateMutability": "view",
      "type": "function",
      "constant": true
    },
    {
      "inputs": [],
      "name": "rideCount",
      "outputs": [
        {
          "internalType": "uint256",
          "name": "",
          "type": "uint256"
        }
      ],
      "stateMutability": "view",
      "type": "function",
      "constant": true
    },
    {
      "inputs": [
        {
          "internalType": "uint256",
          "name": "",
          "type": "uint256"
        }
      ],
      "name": "rides",
      "outputs": [
        {
          "internalType": "address",
          "name": "driver",
          "type": "address"
        },
        {
          "internalType": "uint256",
          "name": "availableSeats",
          "type": "uint256"
        },
        {
          "internalType": "uint256",
          "name": "seatPrice",
          "type": "uint256"
        },
        {
          "internalType": "bool",
          "name": "isActive",
          "type": "bool"
        }
      ],
      "stateMutability": "view",
      "type": "function",
      "constant": true
    },
    {
      "inputs": [
        {
          "internalType": "uint256",
          "name": "_availableSeats",
          "type": "uint256"
        },
        {
          "internalType": "uint256",
          "name": "_seatPrice",
          "type": "uint256"
        }
      ],
      "name": "signUpAsDriver",
      "outputs": [],
      "stateMutability": "nonpayable",
      "type": "function"
    },
    {
      "inputs": [
        {
          "internalType": "uint256",
          "name": "_rideId",
          "type": "uint256"
        }
      ],
      "name": "signUpAsPassenger",
      "outputs": [],
      "stateMutability": "nonpayable",
      "type": "function"
    },
    {
      "inputs": [
        {
          "internalType": "uint256",
          "name": "_rideId",
          "type": "uint256"
        }
      ],
      "name": "startRide",
      "outputs": [],
      "stateMutability": "nonpayable",
      "type": "function"
    },
    {
      "inputs": [
        {
          "internalType": "uint256",
          "name": "_rideId",
          "type": "uint256"
        }
      ],
      "name": "completeRide",
      "outputs": [],
      "stateMutability": "nonpayable",
      "type": "function"
    }
  ],
  "bytecode": "0x608060405234801561001057600080fd5b50336000806101000a81548173ffffffffffffffffffffffffffffffffffffffff021916908373ffffffffffffffffffffffffffffffffffffffff160217905550611025806100606000396000f3fe608060405234801561001057600080fd5b506004361061007d5760003560e01c8063b47c18831161005b578063b47c1883146100ef578063c416dd0b1461010d578063e0d8c82214610129578063e9c14b1e146101455761007d565b80634a27db03146100825780635205f1121461009e5780638da5cb5b146100d1575b600080fd5b61009c600480360381019061009791906109dd565b610161565b005b6100b860048036038101906100b391906109b4565b6102b9565b6040516100c89493929190610c93565b60405180910390f35b6100d9610316565b6040516100e69190610c78565b60405180910390f35b6100f761033a565b6040516101049190610db8565b60405180910390f35b610127600480360381019061012291906109b4565b610340565b005b610143600480360381019061013e91906109b4565b6105cf565b005b61015f600480360381019061015a91906109b4565b610833565b005b60026000600154815260200190815260200160002060030160009054906101000a900460ff16156101c7576040517f08c379a00000000000000000000000000000000000000000000000000000000081526004016101be90610cf8565b60405180910390fd5b60006002600060015481526020019081526020016000209050338160000160006101000a81548173ffffffffffffffffffffffffffffffffffffffff021916908373ffffffffffffffffffffffffffffffffffffffff16021790555082816001018190555081816002018190555060008160030160006101000a81548160ff0219169083151502179055506001600081548092919061026590610f60565b91905055507f664f167efc8ed9820e3741309a1e2c81f63909d1617f786c8a77c70ccd275c4b600180546102999190610eba565b3385856040516102ac9493929190610e0a565b60405180910390a1505050565b60026020528060005260406000206000915090508060000160009054906101000a900473ffffffffffffffffffffffffffffffffffffffff16908060010154908060020154908060030160009054906101000a900460ff16905084565b60008054906101000a900473ffffffffffffffffffffffffffffffffffffffff1681565b60015481565b60008054906101000a900473ffffffffffffffffffffffffffffffffffffffff1673ffffffffffffffffffffffffffffffffffffffff163373ffffffffffffffffffffffffffffffffffffffff16146103ce576040517f08c379a00000000000000000000000000000000000000000000000000000000081526004016103c590610cd8565b60405180910390fd5b806001548110610413576040517f08c379a000000000000000000000000000000000000000000000000000000000815260040161040a90610d18565b60405180910390fd5b816002600082815260200190815260200160002060030160009054906101000a900460ff16610477576040517f08c379a000000000000000000000000000000000000000000000000000000000815260040161046e90610d98565b60405180910390fd5b60006002600085815260200190815260200160002090506000816002015482600101546104a49190610e60565b90508160000160009054906101000a900473ffffffffffffffffffffffffffffffffffffffff1673ffffffffffffffffffffffffffffffffffffffff166108fc829081150290604051600060405180830381858888f19350505050158015610510573d6000803e3d6000fd5b507fcb83035a6ac21556c91f3c3f262829fff474823a7c4d9ae09db79d65ff3fc225858360000160009054906101000a900473ffffffffffffffffffffffffffffffffffffffff168360405161056893929190610dd3565b60405180910390a18160000160006101000a81549073ffffffffffffffffffffffffffffffffffffffff0219169055600082600101819055506000826002018190555060008260030160006101000a81548160ff0219169083151502179055505050505050565b806001548110610614576040517f08c379a000000000000000000000000000000000000000000000000000000000815260040161060b90610d18565b60405180910390fd5b816002600082815260200190815260200160002060030160009054906101000a900460ff1615610679576040517f08c379a000000000000000000000000000000000000000000000000000000000815260040161067090610d38565b60405180910390fd5b8260006002600083815260200190815260200160002060010154116106d3576040517f08c379a00000000000000000000000000000000000000000000000000000000081526004016106ca90610d58565b60405180910390fd5b60006002600086815260200190815260200160002090508060040160003373ffffffffffffffffffffffffffffffffffffffff1673ffffffffffffffffffffffffffffffffffffffff16815260200190815260200160002060009054906101000a900460ff1615610779576040517f08c379a000000000000000000000000000000000000000000000000000000000815260040161077090610d78565b60405180910390fd5b60018160040160003373ffffffffffffffffffffffffffffffffffffffff1673ffffffffffffffffffffffffffffffffffffffff16815260200190815260200160002060006101000a81548160ff0219169083151502179055508060010160008154809291906107e890610f36565b91905055507f7988c3b2447a5ed2a0a155a4c61f7832840db3a5432c076dc4db56e6732faad38533836002015460405161082493929190610dd3565b60405180910390a15050505050565b60008054906101000a900473ffffffffffffffffffffffffffffffffffffffff1673ffffffffffffffffffffffffffffffffffffffff163373ffffffffffffffffffffffffffffffffffffffff16146108c1576040517f08c379a00000000000000000000000000000000000000000000000000000000081526004016108b890610cd8565b60405180910390fd5b806001548110610906576040517f08c379a00000000000000000000000000000000000000000000000000000000081526004016108fd90610d18565b60405180910390fd5b816002600082815260200190815260200160002060030160009054906101000a900460ff161561096b576040517f08c379a000000000000000000000000000000000000000000000000000000000815260040161096290610d38565b60405180910390fd5b60016002600085815260200190815260200160002060030160006101000a81548160ff021916908315150217905550505050565b6000813590506109ae81610fd8565b92915050565b6000602082840312156109c657600080fd5b60006109d48482850161099f565b91505092915050565b600080604083850312156109f057600080fd5b60006109fe8582860161099f565b9250506020610a0f8582860161099f565b9150509250929050565b610a2281610eee565b82525050565b610a3181610f00565b82525050565b6000610a44602583610e4f565b91507f4f6e6c7920746865206f776e65722063616e2063616c6c20746869732066756e60008301527f6374696f6e0000000000000000000000000000000000000000000000000000006020830152604082019050919050565b6000610aaa602b83610e4f565b91507f596f752061726520616c726561647920612064726976657220666f7220616e2060008301527f61637469766520726964650000000000000000000000000000000000000000006020830152604082019050919050565b6000610b10601383610e4f565b91507f5269646520646f6573206e6f74206578697374000000000000000000000000006000830152602082019050919050565b6000610b50601683610e4f565b91507f5269646520697320616c726561647920616374697665000000000000000000006000830152602082019050919050565b6000610b90601283610e4f565b91507f4e6f20617661696c61626c6520736561747300000000000000000000000000006000830152602082019050919050565b6000610bd0602883610e4f565b91507f596f752061726520616c726561647920612070617373656e67657220696e207460008301527f68697320726964650000000000000000000000000000000000000000000000006020830152604082019050919050565b6000610c36601283610e4f565b91507f52696465206973206e6f742061637469766500000000000000000000000000006000830152602082019050919050565b610c7281610f2c565b82525050565b6000602082019050610c8d6000830184610a19565b92915050565b6000608082019050610ca86000830187610a19565b610cb56020830186610c69565b610cc26040830185610c69565b610ccf6060830184610a28565b95945050505050565b60006020820190508181036000830152610cf181610a37565b9050919050565b60006020820190508181036000830152610d1181610a9d565b9050919050565b60006020820190508181036000830152610d3181610b03565b9050919050565b60006020820190508181036000830152610d5181610b43565b9050919050565b60006020820190508181036000830152610d7181610b83565b9050919050565b60006020820190508181036000830152610d9181610bc3565b9050919050565b60006020820190508181036000830152610db181610c29565b9050919050565b6000602082019050610dcd6000830184610c69565b92915050565b6000606082019050610de86000830186610c69565b610df56020830185610a19565b610e026040830184610c69565b949350505050565b6000608082019050610e1f6000830187610c69565b610e2c6020830186610a19565b610e396040830185610c69565b610e466060830184610c69565b95945050505050565b600082825260208201905092915050565b6000610e6b82610f2c565b9150610e7683610f2c565b9250817fffffffffffffffffffffffffffffffffffffffffffffffffffffffffffffffff0483118215151615610eaf57610eae610fa9565b5b828202905092915050565b6000610ec582610f2c565b9150610ed083610f2c565b925082821015610ee357610ee2610fa9565b5b828203905092915050565b6000610ef982610f0c565b9050919050565b60008115159050919050565b600073ffffffffffffffffffffffffffffffffffffffff82169050919050565b6000819050919050565b6000610f4182610f2c565b91506000821415610f5557610f54610fa9565b5b600182039050919050565b6000610f6b82610f2c565b91507fffffffffffffffffffffffffffffffffffffffffffffffffffffffffffffffff821415610f9e57610f9d610fa9565b5b600182019050919050565b7f4e487b7100000000000000000000000000000000000000000000000000000000600052601160045260246000fd5b610fe181610f2c565b8114610fec57600080fd5b5056fea264697066735822122077571ec272d34f7fd34b9c0ffe8c1aa8c972ff9504981eec626efde9ec29d6bd64736f6c63430008000033",
  "immutableReferences": {},
  "source": "// SPDX-License-Identifier: MIT\npragma solidity ^0.8.0;\n\ncontract RideShareConnect {\n    address public owner;\n    uint public rideCount;\n\n    struct Ride {\n        address driver;\n        uint availableSeats;\n        uint seatPrice;\n        bool isActive;\n        mapping(address => bool) passengers;\n    }\n\n    mapping(uint => Ride) public rides;\n\n    event RideStarted(uint rideId, address driver, uint availableSeats, uint seatPrice);\n    event RideBooked(uint rideId, address passenger, uint seatPrice);\n    event RideCompleted(uint rideId, address driver, uint totalEarned);\n\n    modifier onlyOwner() {\n        require(msg.sender == owner, \"Only the owner can call this function\");\n        _;\n    }\n\n    modifier rideExists(uint _rideId) {\n        require(_rideId < rideCount, \"Ride does not exist\");\n        _;\n    }\n\n    modifier rideNotActive(uint _rideId) {\n        require(!rides[_rideId].isActive, \"Ride is already active\");\n        _;\n    }\n\n    modifier rideActive(uint _rideId) {\n        require(rides[_rideId].isActive, \"Ride is not active\");\n        _;\n    }\n\n    modifier enoughSeatsAvailable(uint _rideId) {\n        require(rides[_rideId].availableSeats > 0, \"No available seats\");\n        _;\n    }\n\n    constructor() {\n        owner = msg.sender;\n    }\n\n    function signUpAsDriver(uint _availableSeats, uint _seatPrice) external {\n        // Ensure the user is not already a driver\n        require(!rides[rideCount].isActive, \"You are already a driver for an active ride\");\n\n        Ride storage newRide = rides[rideCount];\n        newRide.driver = msg.sender;\n        newRide.availableSeats = _availableSeats;\n        newRide.seatPrice = _seatPrice;\n        newRide.isActive = false;\n\n        rideCount++;\n\n        emit RideStarted(rideCount - 1, msg.sender, _availableSeats, _seatPrice);\n    }\n\n    function signUpAsPassenger(uint _rideId) external rideExists(_rideId) rideNotActive(_rideId) enoughSeatsAvailable(_rideId) {\n        Ride storage ride = rides[_rideId];\n        require(!ride.passengers[msg.sender], \"You are already a passenger in this ride\");\n\n        ride.passengers[msg.sender] = true;\n        ride.availableSeats--;\n\n        emit RideBooked(_rideId, msg.sender, ride.seatPrice);\n    }\n\n    function startRide(uint _rideId) external onlyOwner rideExists(_rideId) rideNotActive(_rideId) {\n        rides[_rideId].isActive = true;\n    }\n\n    function completeRide(uint _rideId) external onlyOwner rideExists(_rideId) rideActive(_rideId) {\n        Ride storage ride = rides[_rideId];\n\n        uint totalEarned = ride.availableSeats * ride.seatPrice;\n        payable(ride.driver).transfer(totalEarned);\n\n        emit RideCompleted(_rideId, ride.driver, totalEarned);\n\n        // Reset the ride\n        delete ride.driver;\n        ride.availableSeats = 0;\n        ride.seatPrice = 0;\n        ride.isActive = false;\n    }\n}\n",
  "sourcePath": "/home/anas/Desktop/RideShare-Connect/contracts/RideShareConnect.sol",
  "compiler": {
    "name": "solc",
    "version": "0.8.0+commit.c7dfd78e.Emscripten.clang"
  },
  "schemaVersion": "3.4.16",
  "updatedAt": "2023-12-01T18:14:10.025Z",
  "networkType": "ethereum",
  "devdoc": {
    "kind": "dev",
    "methods": {},
    "version": 1
  },
  "userdoc": {
    "kind": "user",
    "methods": {},
    "version": 1
  }
}