{
  "contractName": "RideShare",
  "abi": [
    {
      "inputs": [],
      "stateMutability": "nonpayable",
      "type": "constructor"
    },
    {
      "inputs": [
        {
          "internalType": "address",
          "name": "",
          "type": "address"
        }
      ],
      "name": "drivers",
      "outputs": [
        {
          "internalType": "bool",
          "name": "",
          "type": "bool"
        }
      ],
      "stateMutability": "view",
      "type": "function"
    },
    {
      "inputs": [],
      "name": "owner",
      "outputs": [
        {
          "internalType": "address",
          "name": "",
          "type": "address"
        }
      ],
      "stateMutability": "view",
      "type": "function"
    },
    {
      "inputs": [
        {
          "internalType": "address",
          "name": "_driver",
          "type": "address"
        }
      ],
      "name": "addDriver",
      "outputs": [],
      "stateMutability": "nonpayable",
      "type": "function"
    }
  ],
  "bytecode": "0x608060405234801561000f575f80fd5b50335f806101000a81548173ffffffffffffffffffffffffffffffffffffffff021916908373ffffffffffffffffffffffffffffffffffffffff1602179055506103898061005c5f395ff3fe608060405234801561000f575f80fd5b506004361061003f575f3560e01c80634aa601861461004357806363a411c0146100735780638da5cb5b1461008f575b5f80fd5b61005d6004803603810190610058919061022f565b6100ad565b60405161006a9190610274565b60405180910390f35b61008d6004803603810190610088919061022f565b6100ca565b005b6100976101ae565b6040516100a4919061029c565b60405180910390f35b6001602052805f5260405f205f915054906101000a900460ff1681565b5f8054906101000a900473ffffffffffffffffffffffffffffffffffffffff1673ffffffffffffffffffffffffffffffffffffffff163373ffffffffffffffffffffffffffffffffffffffff1614610157576040517f08c379a000000000000000000000000000000000000000000000000000000000815260040161014e90610335565b60405180910390fd5b6001805f8373ffffffffffffffffffffffffffffffffffffffff1673ffffffffffffffffffffffffffffffffffffffff1681526020019081526020015f205f6101000a81548160ff02191690831515021790555050565b5f8054906101000a900473ffffffffffffffffffffffffffffffffffffffff1681565b5f80fd5b5f73ffffffffffffffffffffffffffffffffffffffff82169050919050565b5f6101fe826101d5565b9050919050565b61020e816101f4565b8114610218575f80fd5b50565b5f8135905061022981610205565b92915050565b5f60208284031215610244576102436101d1565b5b5f6102518482850161021b565b91505092915050565b5f8115159050919050565b61026e8161025a565b82525050565b5f6020820190506102875f830184610265565b92915050565b610296816101f4565b82525050565b5f6020820190506102af5f83018461028d565b92915050565b5f82825260208201905092915050565b7f4f6e6c7920746865206f776e65722063616e2063616c6c20746869732066756e5f8201527f6374696f6e000000000000000000000000000000000000000000000000000000602082015250565b5f61031f6025836102b5565b915061032a826102c5565b604082019050919050565b5f6020820190508181035f83015261034c81610313565b905091905056fea264697066735822122045a404b307de633d9143cd808becf292e5f4adbd3a7a0a9dae659d981e7c2f2c64736f6c63430008170033",
  "immutableReferences": {},
  "source": "// SPDX-License-Identifier: MIT\npragma solidity ^0.8.0;\n\ncontract RideShare {\n    // Define data structures and functions here\n    address public owner;\n    mapping(address => bool) public drivers;\n    \n    constructor() {\n        owner = msg.sender;\n    }\n\n    modifier onlyOwner() {\n        require(msg.sender == owner, \"Only the owner can call this function\");\n        _;\n    }\n\n    function addDriver(address _driver) external onlyOwner {\n        drivers[_driver] = true;\n    }\n}\n",
  "sourcePath": "/home/anas/Desktop/RideShare-Connect/contracts/RideShare.sol",
  "compiler": {
    "name": "solc",
    "version": "0.8.23+commit.f704f362.Emscripten.clang"
  },
  "schemaVersion": "3.4.16",
  "updatedAt": "2023-12-01T13:51:22.564Z",
  "devdoc": {
    "kind": "dev",
    "methods": {},
    "version": 1
  },
  "userdoc": {
    "kind": "user",
    "methods": {},
    "version": 1
  }
}