{
  "contractName": "RideShareConnect",
  "abi": [
    {
      "anonymous": false,
      "inputs": [
        {
          "indexed": false,
          "internalType": "uint256",
          "name": "rideID",
          "type": "uint256"
        },
        {
          "indexed": false,
          "internalType": "string",
          "name": "driverID",
          "type": "string"
        }
      ],
      "name": "RideStarted",
      "type": "event"
    },
    {
      "anonymous": false,
      "inputs": [
        {
          "indexed": true,
          "internalType": "address",
          "name": "userAddress",
          "type": "address"
        },
        {
          "indexed": false,
          "internalType": "string",
          "name": "username",
          "type": "string"
        },
        {
          "indexed": false,
          "internalType": "bool",
          "name": "isDriver",
          "type": "bool"
        }
      ],
      "name": "UserSignup",
      "type": "event"
    },
    {
      "inputs": [
        {
          "internalType": "uint256",
          "name": "",
          "type": "uint256"
        }
      ],
      "name": "rides",
      "outputs": [
        {
          "internalType": "uint256",
          "name": "rideID",
          "type": "uint256"
        },
        {
          "internalType": "string",
          "name": "driverID",
          "type": "string"
        },
        {
          "internalType": "bool",
          "name": "isGoing",
          "type": "bool"
        }
      ],
      "stateMutability": "view",
      "type": "function",
      "constant": true
    },
    {
      "inputs": [
        {
          "internalType": "address",
          "name": "",
          "type": "address"
        }
      ],
      "name": "users",
      "outputs": [
        {
          "internalType": "bool",
          "name": "isDriver",
          "type": "bool"
        },
        {
          "internalType": "string",
          "name": "username",
          "type": "string"
        },
        {
          "internalType": "string",
          "name": "password",
          "type": "string"
        },
        {
          "internalType": "string",
          "name": "carRegistration",
          "type": "string"
        },
        {
          "internalType": "uint256",
          "name": "numberOfSeats",
          "type": "uint256"
        },
        {
          "internalType": "uint256",
          "name": "seatPrice",
          "type": "uint256"
        }
      ],
      "stateMutability": "view",
      "type": "function",
      "constant": true
    },
    {
      "inputs": [
        {
          "internalType": "string",
          "name": "_username",
          "type": "string"
        },
        {
          "internalType": "string",
          "name": "_password",
          "type": "string"
        }
      ],
      "name": "signupCustomer",
      "outputs": [],
      "stateMutability": "nonpayable",
      "type": "function"
    },
    {
      "inputs": [
        {
          "internalType": "string",
          "name": "_username",
          "type": "string"
        },
        {
          "internalType": "string",
          "name": "_carRegistration",
          "type": "string"
        },
        {
          "internalType": "uint256",
          "name": "_numberOfSeats",
          "type": "uint256"
        },
        {
          "internalType": "uint256",
          "name": "_seatPrice",
          "type": "uint256"
        }
      ],
      "name": "startRide",
      "outputs": [],
      "stateMutability": "nonpayable",
      "type": "function"
    },
    {
      "inputs": [
        {
          "internalType": "string",
          "name": "_username",
          "type": "string"
        },
        {
          "internalType": "string",
          "name": "_password",
          "type": "string"
        }
      ],
      "name": "signin",
      "outputs": [
        {
          "internalType": "bool",
          "name": "",
          "type": "bool"
        }
      ],
      "stateMutability": "view",
      "type": "function",
      "constant": true
    }
  ],
  "bytecode": "0x608060405234801561001057600080fd5b50611562806100206000396000f3fe608060405234801561001057600080fd5b50600436106100575760003560e01c8063513aa3dc1461005c5780635205f1121461007857806394b60e98146100aa578063990a4a9a146100c6578063a87430ba146100f6575b600080fd5b61007660048036038101906100719190610cd1565b61012b565b005b610092600480360381019061008d9190610dd0565b610315565b6040516100a1939291906112bd565b60405180910390f35b6100c460048036038101906100bf9190610d3d565b6103d4565b005b6100e060048036038101906100db9190610cd1565b610872565b6040516100ed919061110c565b60405180910390f35b610110600480360381019061010b9190610ca8565b610992565b60405161012296959493929190611127565b60405180910390f35b600082511161016f576040517f08c379a0000000000000000000000000000000000000000000000000000000008152600401610166906111cd565b60405180910390fd5b60008151116101b3576040517f08c379a00000000000000000000000000000000000000000000000000000000081526004016101aa9061120d565b60405180910390fd5b6040518060c001604052806000151581526020018381526020018281526020016040518060200160405280600081525081526020016000815260200160008152506000803373ffffffffffffffffffffffffffffffffffffffff1673ffffffffffffffffffffffffffffffffffffffff16815260200190815260200160002060008201518160000160006101000a81548160ff021916908315150217905550602082015181600101908051906020019061026e929190610b73565b50604082015181600201908051906020019061028b929190610b73565b5060608201518160030190805190602001906102a8929190610b73565b506080820151816004015560a082015181600501559050503373ffffffffffffffffffffffffffffffffffffffff167f91430230f1ababcaa71d1943ca9cdcdc7240252c0f87794d870d26fccbfb398183600060405161030992919061119d565b60405180910390a25050565b600160205280600052604060002060009150905080600001549080600101805461033e90611422565b80601f016020809104026020016040519081016040528092919081815260200182805461036a90611422565b80156103b75780601f1061038c576101008083540402835291602001916103b7565b820191906000526020600020905b81548152906001019060200180831161039a57829003601f168201915b5050505050908060020160009054906101000a900460ff16905083565b6000845111610418576040517f08c379a000000000000000000000000000000000000000000000000000000000815260040161040f906111cd565b60405180910390fd5b600083511161045c576040517f08c379a0000000000000000000000000000000000000000000000000000000008152600401610453906111ed565b60405180910390fd5b6000821161049f576040517f08c379a00000000000000000000000000000000000000000000000000000000081526004016104969061122d565b60405180910390fd5b600081116104e2576040517f08c379a00000000000000000000000000000000000000000000000000000000081526004016104d99061126d565b60405180910390fd5b6000803373ffffffffffffffffffffffffffffffffffffffff1673ffffffffffffffffffffffffffffffffffffffff16815260200190815260200160002060000160009054906101000a900460ff1615610571576040517f08c379a00000000000000000000000000000000000000000000000000000000081526004016105689061124d565b60405180910390fd5b6040518060c001604052806001151581526020018581526020016000803373ffffffffffffffffffffffffffffffffffffffff1673ffffffffffffffffffffffffffffffffffffffff16815260200190815260200160002060020180546105d790611422565b80601f016020809104026020016040519081016040528092919081815260200182805461060390611422565b80156106505780601f1061062557610100808354040283529160200191610650565b820191906000526020600020905b81548152906001019060200180831161063357829003601f168201915b50505050508152602001848152602001838152602001828152506000803373ffffffffffffffffffffffffffffffffffffffff1673ffffffffffffffffffffffffffffffffffffffff16815260200190815260200160002060008201518160000160006101000a81548160ff02191690831515021790555060208201518160010190805190602001906106e4929190610b73565b506040820151816002019080519060200190610701929190610b73565b50606082015181600301908051906020019061071e929190610b73565b506080820151816004015560a082015181600501559050506000423360405160200161074b9291906110e0565b6040516020818303038152906040528051906020012060001c9050604051806060016040528082815260200186815260200160001515815250600160008381526020019081526020016000206000820151816000015560208201518160010190805190602001906107bd929190610b73565b5060408201518160020160006101000a81548160ff0219169083151502179055509050503373ffffffffffffffffffffffffffffffffffffffff167f91430230f1ababcaa71d1943ca9cdcdc7240252c0f87794d870d26fccbfb398186600160405161082a92919061119d565b60405180910390a27f4315f676a3514f2b5a10f1259a8760562e5868752ce7f844be75139e0ac12826818660405161086392919061128d565b60405180910390a15050505050565b6000808351116108b7576040517f08c379a00000000000000000000000000000000000000000000000000000000081526004016108ae906111cd565b60405180910390fd5b60008251116108fb576040517f08c379a00000000000000000000000000000000000000000000000000000000081526004016108f29061120d565b60405180910390fd5b60008060003373ffffffffffffffffffffffffffffffffffffffff1673ffffffffffffffffffffffffffffffffffffffff168152602001908152602001600020905083805190602001208160010160405161095691906110c9565b6040518091039020148015610989575082805190602001208160020160405161097f91906110c9565b6040518091039020145b91505092915050565b60006020528060005260406000206000915090508060000160009054906101000a900460ff16908060010180546109c890611422565b80601f01602080910402602001604051908101604052809291908181526020018280546109f490611422565b8015610a415780601f10610a1657610100808354040283529160200191610a41565b820191906000526020600020905b815481529060010190602001808311610a2457829003601f168201915b505050505090806002018054610a5690611422565b80601f0160208091040260200160405190810160405280929190818152602001828054610a8290611422565b8015610acf5780601f10610aa457610100808354040283529160200191610acf565b820191906000526020600020905b815481529060010190602001808311610ab257829003601f168201915b505050505090806003018054610ae490611422565b80601f0160208091040260200160405190810160405280929190818152602001828054610b1090611422565b8015610b5d5780601f10610b3257610100808354040283529160200191610b5d565b820191906000526020600020905b815481529060010190602001808311610b4057829003601f168201915b5050505050908060040154908060050154905086565b828054610b7f90611422565b90600052602060002090601f016020900481019282610ba15760008555610be8565b82601f10610bba57805160ff1916838001178555610be8565b82800160010185558215610be8579182015b82811115610be7578251825591602001919060010190610bcc565b5b509050610bf59190610bf9565b5090565b5b80821115610c12576000816000905550600101610bfa565b5090565b6000610c29610c248461132c565b6112fb565b905082815260208101848484011115610c4157600080fd5b610c4c8482856113e0565b509392505050565b600081359050610c63816114fe565b92915050565b600082601f830112610c7a57600080fd5b8135610c8a848260208601610c16565b91505092915050565b600081359050610ca281611515565b92915050565b600060208284031215610cba57600080fd5b6000610cc884828501610c54565b91505092915050565b60008060408385031215610ce457600080fd5b600083013567ffffffffffffffff811115610cfe57600080fd5b610d0a85828601610c69565b925050602083013567ffffffffffffffff811115610d2757600080fd5b610d3385828601610c69565b9150509250929050565b60008060008060808587031215610d5357600080fd5b600085013567ffffffffffffffff811115610d6d57600080fd5b610d7987828801610c69565b945050602085013567ffffffffffffffff811115610d9657600080fd5b610da287828801610c69565b9350506040610db387828801610c93565b9250506060610dc487828801610c93565b91505092959194509250565b600060208284031215610de257600080fd5b6000610df084828501610c93565b91505092915050565b610e0a610e0582611398565b611454565b82525050565b610e19816113aa565b82525050565b60008154610e2c81611422565b610e36818661137c565b94506001821660008114610e515760018114610e6257610e95565b60ff19831686528186019350610e95565b610e6b8561135c565b60005b83811015610e8d57815481890152600182019150602081019050610e6e565b838801955050505b50505092915050565b6000610ea982611371565b610eb38185611387565b9350610ec38185602086016113ef565b610ecc816114e0565b840191505092915050565b6000610ee4601883611387565b91507f557365726e616d652063616e6e6f7420626520656d70747900000000000000006000830152602082019050919050565b6000610f24602083611387565b91507f43617220726567697374726174696f6e2063616e6e6f7420626520656d7074796000830152602082019050919050565b6000610f64601883611387565b91507f50617373776f72642063616e6e6f7420626520656d70747900000000000000006000830152602082019050919050565b6000610fa4602683611387565b91507f4e756d626572206f66207365617473206d75737420626520677265617465722060008301527f7468616e203000000000000000000000000000000000000000000000000000006020830152604082019050919050565b600061100a601883611387565b91507f5573657220697320616c726561647920612064726976657200000000000000006000830152602082019050919050565b600061104a602183611387565b91507f53656174207072696365206d7573742062652067726561746572207468616e2060008301527f30000000000000000000000000000000000000000000000000000000000000006020830152604082019050919050565b6110ac816113d6565b82525050565b6110c36110be826113d6565b611478565b82525050565b60006110d58284610e1f565b915081905092915050565b60006110ec82856110b2565b6020820191506110fc8284610df9565b6014820191508190509392505050565b60006020820190506111216000830184610e10565b92915050565b600060c08201905061113c6000830189610e10565b818103602083015261114e8188610e9e565b905081810360408301526111628187610e9e565b905081810360608301526111768186610e9e565b905061118560808301856110a3565b61119260a08301846110a3565b979650505050505050565b600060408201905081810360008301526111b78185610e9e565b90506111c66020830184610e10565b9392505050565b600060208201905081810360008301526111e681610ed7565b9050919050565b6000602082019050818103600083015261120681610f17565b9050919050565b6000602082019050818103600083015261122681610f57565b9050919050565b6000602082019050818103600083015261124681610f97565b9050919050565b6000602082019050818103600083015261126681610ffd565b9050919050565b600060208201905081810360008301526112868161103d565b9050919050565b60006040820190506112a260008301856110a3565b81810360208301526112b48184610e9e565b90509392505050565b60006060820190506112d260008301866110a3565b81810360208301526112e48185610e9e565b90506112f36040830184610e10565b949350505050565b6000604051905081810181811067ffffffffffffffff82111715611322576113216114b1565b5b8060405250919050565b600067ffffffffffffffff821115611347576113466114b1565b5b601f19601f8301169050602081019050919050565b60008190508160005260206000209050919050565b600081519050919050565b600081905092915050565b600082825260208201905092915050565b60006113a3826113b6565b9050919050565b60008115159050919050565b600073ffffffffffffffffffffffffffffffffffffffff82169050919050565b6000819050919050565b82818337600083830152505050565b60005b8381101561140d5780820151818401526020810190506113f2565b8381111561141c576000848401525b50505050565b6000600282049050600182168061143a57607f821691505b6020821081141561144e5761144d611482565b5b50919050565b600061145f82611466565b9050919050565b6000611471826114f1565b9050919050565b6000819050919050565b7f4e487b7100000000000000000000000000000000000000000000000000000000600052602260045260246000fd5b7f4e487b7100000000000000000000000000000000000000000000000000000000600052604160045260246000fd5b6000601f19601f8301169050919050565b60008160601b9050919050565b61150781611398565b811461151257600080fd5b50565b61151e816113d6565b811461152957600080fd5b5056fea264697066735822122064c26abc7da336459fc75814e02392b0a1b24a687e19a31f407004e55931f05b64736f6c63430008000033",
  "immutableReferences": {},
  "source": "// SPDX-License-Identifier: MIT\npragma solidity ^0.8.0;\n\ncontract RideShareConnect {\n    // Define a struct to represent user data\n    struct User {\n        bool isDriver;\n        string username;\n        string password; // Note: In a production environment, passwords should be securely hashed.\n        string carRegistration;\n        uint256 numberOfSeats;\n        uint256 seatPrice;\n    }\n\n    // Define a struct to represent ride data\n    struct Ride {\n        uint256 rideID;\n        string driverID;\n        bool isGoing;\n    }\n\n    // Mapping to store user data\n    mapping(address => User) public users;\n\n    // Mapping to store ride data\n    mapping(uint256 => Ride) public rides;\n\n    // Event to log user signup\n    event UserSignup(\n        address indexed userAddress,\n        string username,\n        bool isDriver\n    );\n\n    // Event to log ride start\n    event RideStarted(uint256 rideID, string driverID);\n\n    /// Function to sign up as a customer\n    function signupCustomer(\n        string memory _username,\n        string memory _password\n    ) public {\n        require(bytes(_username).length > 0, \"Username cannot be empty\");\n        require(bytes(_password).length > 0, \"Password cannot be empty\");\n\n        users[msg.sender] = User({\n            isDriver: false,\n            username: _username,\n            password: _password,\n            carRegistration: \"\",\n            numberOfSeats: 0,\n            seatPrice: 0\n        });\n\n        emit UserSignup(msg.sender, _username, false);\n    }\n\n    /// Function to start a ride as a driver\n    function startRide(\n        string memory _username,\n        string memory _carRegistration,\n        uint256 _numberOfSeats,\n        uint256 _seatPrice\n    ) public {\n        require(bytes(_username).length > 0, \"Username cannot be empty\");\n        require(\n            bytes(_carRegistration).length > 0,\n            \"Car registration cannot be empty\"\n        );\n        require(_numberOfSeats > 0, \"Number of seats must be greater than 0\");\n        require(_seatPrice > 0, \"Seat price must be greater than 0\");\n        require(!users[msg.sender].isDriver, \"User is already a driver\");\n\n        users[msg.sender] = User({\n            isDriver: true,\n            username: _username,\n            password: users[msg.sender].password,\n            carRegistration: _carRegistration,\n            numberOfSeats: _numberOfSeats,\n            seatPrice: _seatPrice\n        });\n\n        uint256 rideID = uint256(\n            keccak256(abi.encodePacked(block.timestamp, msg.sender))\n        );\n        rides[rideID] = Ride({\n            rideID: rideID,\n            driverID: _username,\n            isGoing: false\n        });\n\n        emit UserSignup(msg.sender, _username, true);\n        emit RideStarted(rideID, _username);\n    }\n\n    // Function to sign in\n    function signin(\n        string memory _username,\n        string memory _password\n    ) public view returns (bool) {\n        require(bytes(_username).length > 0, \"Username cannot be empty\");\n        require(bytes(_password).length > 0, \"Password cannot be empty\");\n\n        User storage user = users[msg.sender];\n        return\n            keccak256(bytes(user.username)) == keccak256(bytes(_username)) &&\n            keccak256(bytes(user.password)) == keccak256(bytes(_password));\n    }\n}\n",
  "sourcePath": "/home/anas/Documents/RideShare-Connect/contracts/RideShareConnect.sol",
  "compiler": {
    "name": "solc",
    "version": "0.8.0+commit.c7dfd78e.Emscripten.clang"
  },
  "schemaVersion": "3.4.16",
  "updatedAt": "2023-12-09T10:45:13.688Z",
  "networkType": "ethereum",
  "devdoc": {
    "kind": "dev",
    "methods": {},
    "version": 1
  },
  "userdoc": {
    "kind": "user",
    "methods": {
      "signupCustomer(string,string)": {
        "notice": "Function to sign up as a customer"
      },
      "startRide(string,string,uint256,uint256)": {
        "notice": "Function to start a ride as a driver"
      }
    },
    "version": 1
  }
}