{
  "contractName": "RideShareConnect",
  "abi": [
    {
      "anonymous": false,
      "inputs": [
        {
          "indexed": false,
          "internalType": "uint256",
          "name": "rideId",
          "type": "uint256"
        },
        {
          "indexed": false,
          "internalType": "address",
          "name": "passenger",
          "type": "address"
        }
      ],
      "name": "RideBooked",
      "type": "event"
    },
    {
      "anonymous": false,
      "inputs": [
        {
          "indexed": false,
          "internalType": "uint256",
          "name": "rideId",
          "type": "uint256"
        },
        {
          "indexed": false,
          "internalType": "address",
          "name": "canceller",
          "type": "address"
        }
      ],
      "name": "RideCancelled",
      "type": "event"
    },
    {
      "anonymous": false,
      "inputs": [
        {
          "indexed": false,
          "internalType": "uint256",
          "name": "rideId",
          "type": "uint256"
        },
        {
          "indexed": false,
          "internalType": "address",
          "name": "driver",
          "type": "address"
        },
        {
          "indexed": false,
          "internalType": "uint256",
          "name": "availableSeats",
          "type": "uint256"
        },
        {
          "indexed": false,
          "internalType": "uint256",
          "name": "seatPrice",
          "type": "uint256"
        }
      ],
      "name": "RideStarted",
      "type": "event"
    },
    {
      "inputs": [],
      "name": "rideCount",
      "outputs": [
        {
          "internalType": "uint256",
          "name": "",
          "type": "uint256"
        }
      ],
      "stateMutability": "view",
      "type": "function",
      "constant": true
    },
    {
      "inputs": [
        {
          "internalType": "uint256",
          "name": "",
          "type": "uint256"
        }
      ],
      "name": "rides",
      "outputs": [
        {
          "internalType": "address",
          "name": "driver",
          "type": "address"
        },
        {
          "internalType": "uint256",
          "name": "availableSeats",
          "type": "uint256"
        },
        {
          "internalType": "uint256",
          "name": "seatPrice",
          "type": "uint256"
        }
      ],
      "stateMutability": "view",
      "type": "function",
      "constant": true
    },
    {
      "inputs": [
        {
          "internalType": "uint256",
          "name": "_availableSeats",
          "type": "uint256"
        },
        {
          "internalType": "uint256",
          "name": "_seatPrice",
          "type": "uint256"
        }
      ],
      "name": "startRide",
      "outputs": [],
      "stateMutability": "nonpayable",
      "type": "function"
    },
    {
      "inputs": [
        {
          "internalType": "uint256",
          "name": "_rideId",
          "type": "uint256"
        }
      ],
      "name": "bookRide",
      "outputs": [],
      "stateMutability": "payable",
      "type": "function",
      "payable": true
    },
    {
      "inputs": [
        {
          "internalType": "uint256",
          "name": "_rideId",
          "type": "uint256"
        }
      ],
      "name": "cancelBooking",
      "outputs": [],
      "stateMutability": "nonpayable",
      "type": "function"
    }
  ],
  "bytecode": "0x608060405234801561001057600080fd5b50610bba806100206000396000f3fe60806040526004361061004a5760003560e01c80630dca825e1461004f5780635205f11214610078578063b47c1883146100b7578063c69b2cf6146100e2578063dea9c9de146100fe575b600080fd5b34801561005b57600080fd5b506100766004803603810190610071919061069b565b610127565b005b34801561008457600080fd5b5061009f600480360381019061009a919061069b565b6102c0565b6040516100ae939291906108de565b60405180910390f35b3480156100c357600080fd5b506100cc61030a565b6040516100d991906109f5565b60405180910390f35b6100fc60048036038101906100f7919061069b565b610310565b005b34801561010a57600080fd5b50610125600480360381019061012091906106c4565b610537565b005b600154811061016b576040517f08c379a000000000000000000000000000000000000000000000000000000000815260040161016290610955565b60405180910390fd5b600080600083815260200190815260200160002090508060030160003373ffffffffffffffffffffffffffffffffffffffff1673ffffffffffffffffffffffffffffffffffffffff16815260200190815260200160002060009054906101000a900460ff1661020f576040517f08c379a0000000000000000000000000000000000000000000000000000000008152600401610206906109b5565b60405180910390fd5b60008160030160003373ffffffffffffffffffffffffffffffffffffffff1673ffffffffffffffffffffffffffffffffffffffff16815260200190815260200160002060006101000a81548160ff02191690831515021790555080600101600081548092919061027e90610af5565b91905055507f550d7cd00e4d9b715e29a709a3ad2de6a9af6baace938bbc3e273868c803e8fe82336040516102b4929190610a10565b60405180910390a15050565b60006020528060005260406000206000915090508060000160009054906101000a900473ffffffffffffffffffffffffffffffffffffffff16908060010154908060020154905083565b60015481565b6001548110610354576040517f08c379a000000000000000000000000000000000000000000000000000000000815260040161034b90610955565b60405180910390fd5b6000806000838152602001908152602001600020905060008160010154116103b1576040517f08c379a00000000000000000000000000000000000000000000000000000000081526004016103a890610995565b60405180910390fd5b806002015434146103f7576040517f08c379a00000000000000000000000000000000000000000000000000000000081526004016103ee90610975565b60405180910390fd5b8060030160003373ffffffffffffffffffffffffffffffffffffffff1673ffffffffffffffffffffffffffffffffffffffff16815260200190815260200160002060009054906101000a900460ff1615610486576040517f08c379a000000000000000000000000000000000000000000000000000000000815260040161047d90610915565b60405180910390fd5b60018160030160003373ffffffffffffffffffffffffffffffffffffffff1673ffffffffffffffffffffffffffffffffffffffff16815260200190815260200160002060006101000a81548160ff0219169083151502179055508060010160008154809291906104f590610acb565b91905055507f65394bc371dbe55ca40e19310c8a935b039bf28367787cfaeeecfe3361bf18a0823360405161052b929190610a10565b60405180910390a15050565b6000821161057a576040517f08c379a0000000000000000000000000000000000000000000000000000000008152600401610571906109d5565b60405180910390fd5b600081116105bd576040517f08c379a00000000000000000000000000000000000000000000000000000000081526004016105b490610935565b60405180910390fd5b600080600060015481526020019081526020016000209050338160000160006101000a81548173ffffffffffffffffffffffffffffffffffffffff021916908373ffffffffffffffffffffffffffffffffffffffff1602179055508281600101819055508181600201819055507f664f167efc8ed9820e3741309a1e2c81f63909d1617f786c8a77c70ccd275c4b6001543385856040516106619493929190610a39565b60405180910390a16001600081548092919061067c90610af5565b9190505550505050565b60008135905061069581610b6d565b92915050565b6000602082840312156106ad57600080fd5b60006106bb84828501610686565b91505092915050565b600080604083850312156106d757600080fd5b60006106e585828601610686565b92505060206106f685828601610686565b9150509250929050565b61070981610a8f565b82525050565b600061071c600e83610a7e565b91507f416c726561647920626f6f6b65640000000000000000000000000000000000006000830152602082019050919050565b600061075c601283610a7e565b91507f496e76616c6964207365617420707269636500000000000000000000000000006000830152602082019050919050565b600061079c601383610a7e565b91507f5269646520646f6573206e6f74206578697374000000000000000000000000006000830152602082019050919050565b60006107dc601883610a7e565b91507f496e636f7272656374207061796d656e7420616d6f756e7400000000000000006000830152602082019050919050565b600061081c601283610a7e565b91507f4e6f20617661696c61626c6520736561747300000000000000000000000000006000830152602082019050919050565b600061085c601783610a7e565b91507f4e6f7420626f6f6b6564206f6e207468697320726964650000000000000000006000830152602082019050919050565b600061089c601783610a7e565b91507f496e76616c6964206e756d626572206f662073656174730000000000000000006000830152602082019050919050565b6108d881610ac1565b82525050565b60006060820190506108f36000830186610700565b61090060208301856108cf565b61090d60408301846108cf565b949350505050565b6000602082019050818103600083015261092e8161070f565b9050919050565b6000602082019050818103600083015261094e8161074f565b9050919050565b6000602082019050818103600083015261096e8161078f565b9050919050565b6000602082019050818103600083015261098e816107cf565b9050919050565b600060208201905081810360008301526109ae8161080f565b9050919050565b600060208201905081810360008301526109ce8161084f565b9050919050565b600060208201905081810360008301526109ee8161088f565b9050919050565b6000602082019050610a0a60008301846108cf565b92915050565b6000604082019050610a2560008301856108cf565b610a326020830184610700565b9392505050565b6000608082019050610a4e60008301876108cf565b610a5b6020830186610700565b610a6860408301856108cf565b610a7560608301846108cf565b95945050505050565b600082825260208201905092915050565b6000610a9a82610aa1565b9050919050565b600073ffffffffffffffffffffffffffffffffffffffff82169050919050565b6000819050919050565b6000610ad682610ac1565b91506000821415610aea57610ae9610b3e565b5b600182039050919050565b6000610b0082610ac1565b91507fffffffffffffffffffffffffffffffffffffffffffffffffffffffffffffffff821415610b3357610b32610b3e565b5b600182019050919050565b7f4e487b7100000000000000000000000000000000000000000000000000000000600052601160045260246000fd5b610b7681610ac1565b8114610b8157600080fd5b5056fea26469706673582212201f28ccdfb765f11248bec9f6db6b322f274a360e825a18d60517f4a53635ccba64736f6c63430008000033",
  "immutableReferences": {},
  "source": "// SPDX-License-Identifier: MIT\npragma solidity ^0.8.0;\n\ncontract RideShareConnect {\n    struct Ride {\n        address driver;\n        uint256 availableSeats;\n        uint256 seatPrice;\n        mapping(address => bool) passengers;\n    }\n\n    mapping(uint256 => Ride) public rides;\n    uint256 public rideCount;\n\n    event RideStarted(uint256 rideId, address driver, uint256 availableSeats, uint256 seatPrice);\n    event RideBooked(uint256 rideId, address passenger);\n    event RideCancelled(uint256 rideId, address canceller);\n\n    function startRide(uint256 _availableSeats, uint256 _seatPrice) external {\n        require(_availableSeats > 0, \"Invalid number of seats\");\n        require(_seatPrice > 0, \"Invalid seat price\");\n\n        Ride storage newRide = rides[rideCount];\n        newRide.driver = msg.sender;\n        newRide.availableSeats = _availableSeats;\n        newRide.seatPrice = _seatPrice;\n\n        emit RideStarted(rideCount, msg.sender, _availableSeats, _seatPrice);\n        rideCount++;\n    }\n\n    function bookRide(uint256 _rideId) external payable {\n        require(_rideId < rideCount, \"Ride does not exist\");\n        Ride storage ride = rides[_rideId];\n        require(ride.availableSeats > 0, \"No available seats\");\n        require(msg.value == ride.seatPrice, \"Incorrect payment amount\");\n        require(!ride.passengers[msg.sender], \"Already booked\");\n\n        ride.passengers[msg.sender] = true;\n        ride.availableSeats--;\n\n        emit RideBooked(_rideId, msg.sender);\n    }\n\n    function cancelBooking(uint256 _rideId) external {\n        require(_rideId < rideCount, \"Ride does not exist\");\n        Ride storage ride = rides[_rideId];\n        require(ride.passengers[msg.sender], \"Not booked on this ride\");\n\n        ride.passengers[msg.sender] = false;\n        ride.availableSeats++;\n\n        emit RideCancelled(_rideId, msg.sender);\n    }\n}\n",
  "sourcePath": "/home/anas/Desktop/RideShare-Connect/contracts/RideShareConnect.sol",
  "compiler": {
    "name": "solc",
    "version": "0.8.0+commit.c7dfd78e.Emscripten.clang"
  },
  "schemaVersion": "3.4.16",
  "updatedAt": "2023-12-01T17:30:32.427Z",
  "networkType": "ethereum",
  "devdoc": {
    "kind": "dev",
    "methods": {},
    "version": 1
  },
  "userdoc": {
    "kind": "user",
    "methods": {},
    "version": 1
  }
}