{
  "contractName": "RideShareConnect",
  "abi": [
    {
      "anonymous": false,
      "inputs": [
        {
          "indexed": false,
          "internalType": "uint256",
          "name": "rideID",
          "type": "uint256"
        },
        {
          "indexed": false,
          "internalType": "string",
          "name": "",
          "type": "string"
        },
        {
          "indexed": false,
          "internalType": "uint256",
          "name": "seatsBooked",
          "type": "uint256"
        }
      ],
      "name": "RideBooked",
      "type": "event"
    },
    {
      "anonymous": false,
      "inputs": [
        {
          "indexed": false,
          "internalType": "string",
          "name": "driverID",
          "type": "string"
        }
      ],
      "name": "RideCanceled",
      "type": "event"
    },
    {
      "anonymous": false,
      "inputs": [
        {
          "indexed": false,
          "internalType": "uint256",
          "name": "rideID",
          "type": "uint256"
        },
        {
          "indexed": false,
          "internalType": "string",
          "name": "driverID",
          "type": "string"
        }
      ],
      "name": "RideStarted",
      "type": "event"
    },
    {
      "anonymous": false,
      "inputs": [
        {
          "indexed": true,
          "internalType": "address",
          "name": "userAddress",
          "type": "address"
        },
        {
          "indexed": false,
          "internalType": "string",
          "name": "username",
          "type": "string"
        },
        {
          "indexed": false,
          "internalType": "bool",
          "name": "isDriver",
          "type": "bool"
        }
      ],
      "name": "UserSignup",
      "type": "event"
    },
    {
      "inputs": [
        {
          "internalType": "uint256",
          "name": "",
          "type": "uint256"
        }
      ],
      "name": "rides",
      "outputs": [
        {
          "internalType": "uint256",
          "name": "rideID",
          "type": "uint256"
        },
        {
          "internalType": "string",
          "name": "driverID",
          "type": "string"
        },
        {
          "internalType": "bool",
          "name": "isGoing",
          "type": "bool"
        }
      ],
      "stateMutability": "view",
      "type": "function",
      "constant": true
    },
    {
      "inputs": [
        {
          "internalType": "address",
          "name": "",
          "type": "address"
        }
      ],
      "name": "users",
      "outputs": [
        {
          "internalType": "bool",
          "name": "isDriver",
          "type": "bool"
        },
        {
          "internalType": "string",
          "name": "username",
          "type": "string"
        },
        {
          "internalType": "string",
          "name": "password",
          "type": "string"
        },
        {
          "internalType": "string",
          "name": "carRegistration",
          "type": "string"
        },
        {
          "internalType": "uint256",
          "name": "numberOfSeats",
          "type": "uint256"
        },
        {
          "internalType": "uint256",
          "name": "seatPrice",
          "type": "uint256"
        }
      ],
      "stateMutability": "view",
      "type": "function",
      "constant": true
    },
    {
      "inputs": [
        {
          "internalType": "string",
          "name": "_username",
          "type": "string"
        },
        {
          "internalType": "string",
          "name": "_password",
          "type": "string"
        }
      ],
      "name": "signupCustomer",
      "outputs": [],
      "stateMutability": "nonpayable",
      "type": "function"
    },
    {
      "inputs": [
        {
          "internalType": "string",
          "name": "_username",
          "type": "string"
        },
        {
          "internalType": "string",
          "name": "_carRegistration",
          "type": "string"
        },
        {
          "internalType": "uint256",
          "name": "_numberOfSeats",
          "type": "uint256"
        },
        {
          "internalType": "uint256",
          "name": "_seatPrice",
          "type": "uint256"
        }
      ],
      "name": "startRide",
      "outputs": [],
      "stateMutability": "nonpayable",
      "type": "function"
    },
    {
      "inputs": [
        {
          "internalType": "string",
          "name": "_username",
          "type": "string"
        },
        {
          "internalType": "uint256",
          "name": "_seatsRequired",
          "type": "uint256"
        },
        {
          "internalType": "uint256",
          "name": "_rideID",
          "type": "uint256"
        }
      ],
      "name": "bookRide",
      "outputs": [],
      "stateMutability": "nonpayable",
      "type": "function"
    },
    {
      "inputs": [],
      "name": "cancelRide",
      "outputs": [],
      "stateMutability": "nonpayable",
      "type": "function"
    },
    {
      "inputs": [
        {
          "internalType": "string",
          "name": "_username",
          "type": "string"
        },
        {
          "internalType": "string",
          "name": "_password",
          "type": "string"
        }
      ],
      "name": "signin",
      "outputs": [
        {
          "internalType": "bool",
          "name": "",
          "type": "bool"
        }
      ],
      "stateMutability": "view",
      "type": "function",
      "constant": true
    }
  ],
  "bytecode": "0x608060405234801561001057600080fd5b506118d0806100206000396000f3fe608060405234801561001057600080fd5b506004361061007d5760003560e01c806394b60e981161005b57806394b60e98146100ec578063990a4a9a14610108578063a87430ba14610138578063ca7d50511461016d5761007d565b80631a6090c414610082578063513aa3dc1461009e5780635205f112146100ba575b600080fd5b61009c60048036038101906100979190610f5c565b610177565b005b6100b860048036038101906100b39190610e5d565b61023e565b005b6100d460048036038101906100cf9190610fc3565b610428565b6040516100e3939291906115d8565b60405180910390f35b61010660048036038101906101019190610ec9565b6104e7565b005b610122600480360381019061011d9190610e5d565b610985565b60405161012f91906113e5565b60405180910390f35b610152600480360381019061014d9190610e34565b610aa5565b60405161016496959493929190611400565b60405180910390f35b610175610c86565b005b60008351116101bb576040517f08c379a00000000000000000000000000000000000000000000000000000000081526004016101b2906114c8565b60405180910390fd5b600082116101fe576040517f08c379a00000000000000000000000000000000000000000000000000000000081526004016101f590611588565b60405180910390fd5b7f6f93b915235c22897b5a1374b76f25aea12239a3963c5999345d688ead694a6181848460405161023193929190611616565b60405180910390a1505050565b6000825111610282576040517f08c379a0000000000000000000000000000000000000000000000000000000008152600401610279906114c8565b60405180910390fd5b60008151116102c6576040517f08c379a00000000000000000000000000000000000000000000000000000000081526004016102bd90611508565b60405180910390fd5b6040518060c001604052806000151581526020018381526020018281526020016040518060200160405280600081525081526020016000815260200160008152506000803373ffffffffffffffffffffffffffffffffffffffff1673ffffffffffffffffffffffffffffffffffffffff16815260200190815260200160002060008201518160000160006101000a81548160ff0219169083151502179055506020820151816001019080519060200190610381929190610cff565b50604082015181600201908051906020019061039e929190610cff565b5060608201518160030190805190602001906103bb929190610cff565b506080820151816004015560a082015181600501559050503373ffffffffffffffffffffffffffffffffffffffff167f91430230f1ababcaa71d1943ca9cdcdc7240252c0f87794d870d26fccbfb398183600060405161041c929190611476565b60405180910390a25050565b600160205280600052604060002060009150905080600001549080600101805461045190611790565b80601f016020809104026020016040519081016040528092919081815260200182805461047d90611790565b80156104ca5780601f1061049f576101008083540402835291602001916104ca565b820191906000526020600020905b8154815290600101906020018083116104ad57829003601f168201915b5050505050908060020160009054906101000a900460ff16905083565b600084511161052b576040517f08c379a0000000000000000000000000000000000000000000000000000000008152600401610522906114c8565b60405180910390fd5b600083511161056f576040517f08c379a0000000000000000000000000000000000000000000000000000000008152600401610566906114e8565b60405180910390fd5b600082116105b2576040517f08c379a00000000000000000000000000000000000000000000000000000000081526004016105a990611528565b60405180910390fd5b600081116105f5576040517f08c379a00000000000000000000000000000000000000000000000000000000081526004016105ec90611568565b60405180910390fd5b6000803373ffffffffffffffffffffffffffffffffffffffff1673ffffffffffffffffffffffffffffffffffffffff16815260200190815260200160002060000160009054906101000a900460ff1615610684576040517f08c379a000000000000000000000000000000000000000000000000000000000815260040161067b90611548565b60405180910390fd5b6040518060c001604052806001151581526020018581526020016000803373ffffffffffffffffffffffffffffffffffffffff1673ffffffffffffffffffffffffffffffffffffffff16815260200190815260200160002060020180546106ea90611790565b80601f016020809104026020016040519081016040528092919081815260200182805461071690611790565b80156107635780601f1061073857610100808354040283529160200191610763565b820191906000526020600020905b81548152906001019060200180831161074657829003601f168201915b50505050508152602001848152602001838152602001828152506000803373ffffffffffffffffffffffffffffffffffffffff1673ffffffffffffffffffffffffffffffffffffffff16815260200190815260200160002060008201518160000160006101000a81548160ff02191690831515021790555060208201518160010190805190602001906107f7929190610cff565b506040820151816002019080519060200190610814929190610cff565b506060820151816003019080519060200190610831929190610cff565b506080820151816004015560a082015181600501559050506000423360405160200161085e9291906113b9565b6040516020818303038152906040528051906020012060001c9050604051806060016040528082815260200186815260200160001515815250600160008381526020019081526020016000206000820151816000015560208201518160010190805190602001906108d0929190610cff565b5060408201518160020160006101000a81548160ff0219169083151502179055509050503373ffffffffffffffffffffffffffffffffffffffff167f91430230f1ababcaa71d1943ca9cdcdc7240252c0f87794d870d26fccbfb398186600160405161093d929190611476565b60405180910390a27f4315f676a3514f2b5a10f1259a8760562e5868752ce7f844be75139e0ac1282681866040516109769291906115a8565b60405180910390a15050505050565b6000808351116109ca576040517f08c379a00000000000000000000000000000000000000000000000000000000081526004016109c1906114c8565b60405180910390fd5b6000825111610a0e576040517f08c379a0000000000000000000000000000000000000000000000000000000008152600401610a0590611508565b60405180910390fd5b60008060003373ffffffffffffffffffffffffffffffffffffffff1673ffffffffffffffffffffffffffffffffffffffff1681526020019081526020016000209050838051906020012081600101604051610a6991906113a2565b6040518091039020148015610a9c5750828051906020012081600201604051610a9291906113a2565b6040518091039020145b91505092915050565b60006020528060005260406000206000915090508060000160009054906101000a900460ff1690806001018054610adb90611790565b80601f0160208091040260200160405190810160405280929190818152602001828054610b0790611790565b8015610b545780601f10610b2957610100808354040283529160200191610b54565b820191906000526020600020905b815481529060010190602001808311610b3757829003601f168201915b505050505090806002018054610b6990611790565b80601f0160208091040260200160405190810160405280929190818152602001828054610b9590611790565b8015610be25780601f10610bb757610100808354040283529160200191610be2565b820191906000526020600020905b815481529060010190602001808311610bc557829003601f168201915b505050505090806003018054610bf790611790565b80601f0160208091040260200160405190810160405280929190818152602001828054610c2390611790565b8015610c705780601f10610c4557610100808354040283529160200191610c70565b820191906000526020600020905b815481529060010190602001808311610c5357829003601f168201915b5050505050908060040154908060050154905086565b7f26b1255eba5ed57dd615020ad020f5ad46ce3bdbb7554516d874a2130c17a9976000803373ffffffffffffffffffffffffffffffffffffffff1673ffffffffffffffffffffffffffffffffffffffff168152602001908152602001600020600101604051610cf591906114a6565b60405180910390a1565b828054610d0b90611790565b90600052602060002090601f016020900481019282610d2d5760008555610d74565b82601f10610d4657805160ff1916838001178555610d74565b82800160010185558215610d74579182015b82811115610d73578251825591602001919060010190610d58565b5b509050610d819190610d85565b5090565b5b80821115610d9e576000816000905550600101610d86565b5090565b6000610db5610db084611685565b611654565b905082815260208101848484011115610dcd57600080fd5b610dd884828561174e565b509392505050565b600081359050610def8161186c565b92915050565b600082601f830112610e0657600080fd5b8135610e16848260208601610da2565b91505092915050565b600081359050610e2e81611883565b92915050565b600060208284031215610e4657600080fd5b6000610e5484828501610de0565b91505092915050565b60008060408385031215610e7057600080fd5b600083013567ffffffffffffffff811115610e8a57600080fd5b610e9685828601610df5565b925050602083013567ffffffffffffffff811115610eb357600080fd5b610ebf85828601610df5565b9150509250929050565b60008060008060808587031215610edf57600080fd5b600085013567ffffffffffffffff811115610ef957600080fd5b610f0587828801610df5565b945050602085013567ffffffffffffffff811115610f2257600080fd5b610f2e87828801610df5565b9350506040610f3f87828801610e1f565b9250506060610f5087828801610e1f565b91505092959194509250565b600080600060608486031215610f7157600080fd5b600084013567ffffffffffffffff811115610f8b57600080fd5b610f9786828701610df5565b9350506020610fa886828701610e1f565b9250506040610fb986828701610e1f565b9150509250925092565b600060208284031215610fd557600080fd5b6000610fe384828501610e1f565b91505092915050565b610ffd610ff882611706565b6117c2565b82525050565b61100c81611718565b82525050565b6000815461101f81611790565b61102981866116ea565b94506001821660008114611044576001811461105557611088565b60ff19831686528186019350611088565b61105e856116b5565b60005b8381101561108057815481890152600182019150602081019050611061565b838801955050505b50505092915050565b600061109c826116df565b6110a681856116f5565b93506110b681856020860161175d565b6110bf8161184e565b840191505092915050565b600081546110d781611790565b6110e181866116f5565b945060018216600081146110fc576001811461110e57611141565b60ff1983168652602086019350611141565b611117856116ca565b60005b838110156111395781548189015260018201915060208101905061111a565b808801955050505b50505092915050565b60006111576018836116f5565b91507f557365726e616d652063616e6e6f7420626520656d70747900000000000000006000830152602082019050919050565b60006111976020836116f5565b91507f43617220726567697374726174696f6e2063616e6e6f7420626520656d7074796000830152602082019050919050565b60006111d76018836116f5565b91507f50617373776f72642063616e6e6f7420626520656d70747900000000000000006000830152602082019050919050565b60006112176026836116f5565b91507f4e756d626572206f66207365617473206d75737420626520677265617465722060008301527f7468616e203000000000000000000000000000000000000000000000000000006020830152604082019050919050565b600061127d6018836116f5565b91507f5573657220697320616c726561647920612064726976657200000000000000006000830152602082019050919050565b60006112bd6021836116f5565b91507f53656174207072696365206d7573742062652067726561746572207468616e2060008301527f30000000000000000000000000000000000000000000000000000000000000006020830152604082019050919050565b6000611323602f836116f5565b91507f4e756d626572206f66207365617473207265717569726564206d75737420626560008301527f2067726561746572207468616e203000000000000000000000000000000000006020830152604082019050919050565b61138581611744565b82525050565b61139c61139782611744565b6117e6565b82525050565b60006113ae8284611012565b915081905092915050565b60006113c5828561138b565b6020820191506113d58284610fec565b6014820191508190509392505050565b60006020820190506113fa6000830184611003565b92915050565b600060c0820190506114156000830189611003565b81810360208301526114278188611091565b9050818103604083015261143b8187611091565b9050818103606083015261144f8186611091565b905061145e608083018561137c565b61146b60a083018461137c565b979650505050505050565b600060408201905081810360008301526114908185611091565b905061149f6020830184611003565b9392505050565b600060208201905081810360008301526114c081846110ca565b905092915050565b600060208201905081810360008301526114e18161114a565b9050919050565b600060208201905081810360008301526115018161118a565b9050919050565b60006020820190508181036000830152611521816111ca565b9050919050565b600060208201905081810360008301526115418161120a565b9050919050565b6000602082019050818103600083015261156181611270565b9050919050565b60006020820190508181036000830152611581816112b0565b9050919050565b600060208201905081810360008301526115a181611316565b9050919050565b60006040820190506115bd600083018561137c565b81810360208301526115cf8184611091565b90509392505050565b60006060820190506115ed600083018661137c565b81810360208301526115ff8185611091565b905061160e6040830184611003565b949350505050565b600060608201905061162b600083018661137c565b818103602083015261163d8185611091565b905061164c604083018461137c565b949350505050565b6000604051905081810181811067ffffffffffffffff8211171561167b5761167a61181f565b5b8060405250919050565b600067ffffffffffffffff8211156116a05761169f61181f565b5b601f19601f8301169050602081019050919050565b60008190508160005260206000209050919050565b60008190508160005260206000209050919050565b600081519050919050565b600081905092915050565b600082825260208201905092915050565b600061171182611724565b9050919050565b60008115159050919050565b600073ffffffffffffffffffffffffffffffffffffffff82169050919050565b6000819050919050565b82818337600083830152505050565b60005b8381101561177b578082015181840152602081019050611760565b8381111561178a576000848401525b50505050565b600060028204905060018216806117a857607f821691505b602082108114156117bc576117bb6117f0565b5b50919050565b60006117cd826117d4565b9050919050565b60006117df8261185f565b9050919050565b6000819050919050565b7f4e487b7100000000000000000000000000000000000000000000000000000000600052602260045260246000fd5b7f4e487b7100000000000000000000000000000000000000000000000000000000600052604160045260246000fd5b6000601f19601f8301169050919050565b60008160601b9050919050565b61187581611706565b811461188057600080fd5b50565b61188c81611744565b811461189757600080fd5b5056fea26469706673582212200d5f4812eb52db1fe5b4cc870ec0f91e1af18818d5a609dc5bf2973a72b5d54664736f6c63430008000033",
  "immutableReferences": {},
  "source": "// SPDX-License-Identifier: MIT\npragma solidity ^0.8.0;\n\ncontract RideShareConnect {\n    // Define a struct to represent user data\n    struct User {\n        bool isDriver;\n        string username;\n        string password;\n        string carRegistration;\n        uint256 numberOfSeats;\n        uint256 seatPrice;\n    }\n\n    // Define a struct to represent ride data\n    struct Ride {\n        uint256 rideID;\n        string driverID;\n        bool isGoing;\n    }\n\n    // Mapping to store user data\n    mapping(address => User) public users;\n\n    // Mapping to store ride data\n    mapping(uint256 => Ride) public rides;\n\n    // Event to log user signup\n    event UserSignup(\n        address indexed userAddress,\n        string username,\n        bool isDriver\n    );\n\n    // Event to log ride start\n    event RideStarted(uint256 rideID, string driverID);\n\n    /// Function to sign up as a customer\n    function signupCustomer(\n        string memory _username,\n        string memory _password\n    ) public {\n        require(bytes(_username).length > 0, \"Username cannot be empty\");\n        require(bytes(_password).length > 0, \"Password cannot be empty\");\n\n        users[msg.sender] = User({\n            isDriver: false,\n            username: _username,\n            password: _password,\n            carRegistration: \"\",\n            numberOfSeats: 0,\n            seatPrice: 0\n        });\n\n        emit UserSignup(msg.sender, _username, false);\n    }\n\n    /// Function to start a ride as a driver\n    function startRide(\n        string memory _username,\n        string memory _carRegistration,\n        uint256 _numberOfSeats,\n        uint256 _seatPrice\n    ) public {\n        require(bytes(_username).length > 0, \"Username cannot be empty\");\n        require(\n            bytes(_carRegistration).length > 0,\n            \"Car registration cannot be empty\"\n        );\n        require(_numberOfSeats > 0, \"Number of seats must be greater than 0\");\n        require(_seatPrice > 0, \"Seat price must be greater than 0\");\n        require(!users[msg.sender].isDriver, \"User is already a driver\");\n\n        users[msg.sender] = User({\n            isDriver: true,\n            username: _username,\n            password: users[msg.sender].password,\n            carRegistration: _carRegistration,\n            numberOfSeats: _numberOfSeats,\n            seatPrice: _seatPrice\n        });\n\n        uint256 rideID = uint256(\n            keccak256(abi.encodePacked(block.timestamp, msg.sender))\n        );\n        rides[rideID] = Ride({\n            rideID: rideID,\n            driverID: _username,\n            isGoing: false\n        });\n\n        emit UserSignup(msg.sender, _username, true);\n        emit RideStarted(rideID, _username);\n    }\n\n    // Event to log ride booking\n    event RideBooked(uint256 rideID, string, uint256 seatsBooked);\n\n    /// Function to book a ride\n    function bookRide(\n        string memory _username,\n        uint256 _seatsRequired,\n        uint256 _rideID\n    ) public {\n        require(bytes(_username).length > 0, \"Username cannot be empty\");\n        require(\n            _seatsRequired > 0,\n            \"Number of seats required must be greater than 0\"\n        );\n\n        // Ensure the user is a customer (not a driver)\n        // require(!users[msg.sender].isDriver, \"Drivers cannot book rides\");\n\n        // Get ride details\n        // Ride storage ride = rides[_rideID];\n\n        // Ensure the ride exists and is not already booked\n        // require(ride.rideID != 0, \"Ride does not exist\");\n        // require(!ride.isGoing, \"Ride is already booked\");\n\n        // Ensure there are enough available seats\n        // require(\n        //     _seatsRequired <= users[msg.sender].numberOfSeats,\n        //     \"Not enough available seats\"\n        // );\n\n        // Book the ride\n        // ride.isGoing = true;\n\n        // Emit event for ride booking\n        emit RideBooked(_rideID, _username, _seatsRequired);\n    }\n\n    // Event to log ride cancellation\n    // event RideCanceled(uint256 indexed rideID, string driverID);\n    event RideCanceled(string driverID);\n\n    /// Function to cancel a ride\n    function cancelRide() public {\n        // Ensure the sender is the driver who started the ride\n        // require(\n        //     rides[_rideID].driverID == users[msg.sender].username,\n        //     \"Only the driver can cancel the ride\"\n        // );\n\n        // // Ensure the ride exists\n        // require(rides[_rideID].rideID != 0, \"Ride does not exist\");\n\n        // // Ensure the ride is not already booked\n        // require(!rides[_rideID].isGoing, \"Ride is already booked\");\n\n        // // Cancel the ride\n        // delete rides[_rideID];\n\n        // Emit event for ride cancellation\n        // emit RideCanceled(_rideID, users[msg.sender].username);\n        emit RideCanceled(users[msg.sender].username);\n    }\n\n    // Function to sign in\n    function signin(\n        string memory _username,\n        string memory _password\n    ) public view returns (bool) {\n        require(bytes(_username).length > 0, \"Username cannot be empty\");\n        require(bytes(_password).length > 0, \"Password cannot be empty\");\n\n        User storage user = users[msg.sender];\n        return\n            keccak256(bytes(user.username)) == keccak256(bytes(_username)) &&\n            keccak256(bytes(user.password)) == keccak256(bytes(_password));\n    }\n}\n",
  "sourcePath": "/home/anas/Documents/RideShare-Connect/contracts/RideShareConnect.sol",
  "compiler": {
    "name": "solc",
    "version": "0.8.0+commit.c7dfd78e.Emscripten.clang"
  },
  "schemaVersion": "3.4.16",
  "updatedAt": "2023-12-10T14:41:32.093Z",
  "networkType": "ethereum",
  "devdoc": {
    "kind": "dev",
    "methods": {},
    "version": 1
  },
  "userdoc": {
    "kind": "user",
    "methods": {
      "bookRide(string,uint256,uint256)": {
        "notice": "Function to book a ride"
      },
      "cancelRide()": {
        "notice": "Function to cancel a ride"
      },
      "signupCustomer(string,string)": {
        "notice": "Function to sign up as a customer"
      },
      "startRide(string,string,uint256,uint256)": {
        "notice": "Function to start a ride as a driver"
      }
    },
    "version": 1
  }
}