{
  "contractName": "RideShareConnect",
  "abi": [
    {
      "anonymous": false,
      "inputs": [
        {
          "indexed": true,
          "internalType": "address",
          "name": "userAddress",
          "type": "address"
        },
        {
          "indexed": false,
          "internalType": "string",
          "name": "username",
          "type": "string"
        },
        {
          "indexed": false,
          "internalType": "bool",
          "name": "isDriver",
          "type": "bool"
        }
      ],
      "name": "UserSignup",
      "type": "event"
    },
    {
      "inputs": [
        {
          "internalType": "address",
          "name": "",
          "type": "address"
        }
      ],
      "name": "users",
      "outputs": [
        {
          "internalType": "bool",
          "name": "isDriver",
          "type": "bool"
        },
        {
          "internalType": "string",
          "name": "username",
          "type": "string"
        },
        {
          "internalType": "string",
          "name": "password",
          "type": "string"
        },
        {
          "internalType": "string",
          "name": "carRegistration",
          "type": "string"
        },
        {
          "internalType": "uint256",
          "name": "numberOfSeats",
          "type": "uint256"
        },
        {
          "internalType": "uint256",
          "name": "seatPrice",
          "type": "uint256"
        }
      ],
      "stateMutability": "view",
      "type": "function",
      "constant": true
    },
    {
      "inputs": [
        {
          "internalType": "string",
          "name": "_username",
          "type": "string"
        },
        {
          "internalType": "string",
          "name": "_password",
          "type": "string"
        }
      ],
      "name": "signupCustomer",
      "outputs": [],
      "stateMutability": "nonpayable",
      "type": "function"
    },
    {
      "inputs": [
        {
          "internalType": "string",
          "name": "_username",
          "type": "string"
        },
        {
          "internalType": "string",
          "name": "_password",
          "type": "string"
        }
      ],
      "name": "signin",
      "outputs": [
        {
          "internalType": "bool",
          "name": "",
          "type": "bool"
        }
      ],
      "stateMutability": "view",
      "type": "function",
      "constant": true
    }
  ],
  "bytecode": "0x608060405234801561001057600080fd5b50610bea806100206000396000f3fe608060405234801561001057600080fd5b50600436106100415760003560e01c8063513aa3dc14610046578063990a4a9a14610062578063a87430ba14610092575b600080fd5b610060600480360381019061005b91906106fb565b6100c7565b005b61007c600480360381019061007791906106fb565b6102b1565b60405161008991906108d4565b60405180910390f35b6100ac60048036038101906100a791906106d2565b6103d1565b6040516100be969594939291906108ef565b60405180910390f35b600082511161010b576040517f08c379a000000000000000000000000000000000000000000000000000000000815260040161010290610995565b60405180910390fd5b600081511161014f576040517f08c379a0000000000000000000000000000000000000000000000000000000008152600401610146906109b5565b60405180910390fd5b6040518060c001604052806000151581526020018381526020018281526020016040518060200160405280600081525081526020016000815260200160008152506000803373ffffffffffffffffffffffffffffffffffffffff1673ffffffffffffffffffffffffffffffffffffffff16815260200190815260200160002060008201518160000160006101000a81548160ff021916908315150217905550602082015181600101908051906020019061020a9291906105b2565b5060408201518160020190805190602001906102279291906105b2565b5060608201518160030190805190602001906102449291906105b2565b506080820151816004015560a082015181600501559050503373ffffffffffffffffffffffffffffffffffffffff167f91430230f1ababcaa71d1943ca9cdcdc7240252c0f87794d870d26fccbfb39818360006040516102a5929190610965565b60405180910390a25050565b6000808351116102f6576040517f08c379a00000000000000000000000000000000000000000000000000000000081526004016102ed90610995565b60405180910390fd5b600082511161033a576040517f08c379a0000000000000000000000000000000000000000000000000000000008152600401610331906109b5565b60405180910390fd5b60008060003373ffffffffffffffffffffffffffffffffffffffff1673ffffffffffffffffffffffffffffffffffffffff168152602001908152602001600020905083805190602001208160010160405161039591906108bd565b60405180910390201480156103c857508280519060200120816002016040516103be91906108bd565b6040518091039020145b91505092915050565b60006020528060005260406000206000915090508060000160009054906101000a900460ff169080600101805461040790610afc565b80601f016020809104026020016040519081016040528092919081815260200182805461043390610afc565b80156104805780601f1061045557610100808354040283529160200191610480565b820191906000526020600020905b81548152906001019060200180831161046357829003601f168201915b50505050509080600201805461049590610afc565b80601f01602080910402602001604051908101604052809291908181526020018280546104c190610afc565b801561050e5780601f106104e35761010080835404028352916020019161050e565b820191906000526020600020905b8154815290600101906020018083116104f157829003601f168201915b50505050509080600301805461052390610afc565b80601f016020809104026020016040519081016040528092919081815260200182805461054f90610afc565b801561059c5780601f106105715761010080835404028352916020019161059c565b820191906000526020600020905b81548152906001019060200180831161057f57829003601f168201915b5050505050908060040154908060050154905086565b8280546105be90610afc565b90600052602060002090601f0160209004810192826105e05760008555610627565b82601f106105f957805160ff1916838001178555610627565b82800160010185558215610627579182015b8281111561062657825182559160200191906001019061060b565b5b5090506106349190610638565b5090565b5b80821115610651576000816000905550600101610639565b5090565b600061066861066384610a06565b6109d5565b90508281526020810184848401111561068057600080fd5b61068b848285610aba565b509392505050565b6000813590506106a281610b9d565b92915050565b600082601f8301126106b957600080fd5b81356106c9848260208601610655565b91505092915050565b6000602082840312156106e457600080fd5b60006106f284828501610693565b91505092915050565b6000806040838503121561070e57600080fd5b600083013567ffffffffffffffff81111561072857600080fd5b610734858286016106a8565b925050602083013567ffffffffffffffff81111561075157600080fd5b61075d858286016106a8565b9150509250929050565b61077081610a84565b82525050565b6000815461078381610afc565b61078d8186610a56565b945060018216600081146107a857600181146107b9576107ec565b60ff198316865281860193506107ec565b6107c285610a36565b60005b838110156107e4578154818901526001820191506020810190506107c5565b838801955050505b50505092915050565b600061080082610a4b565b61080a8185610a61565b935061081a818560208601610ac9565b61082381610b8c565b840191505092915050565b600061083b601883610a61565b91507f557365726e616d652063616e6e6f7420626520656d70747900000000000000006000830152602082019050919050565b600061087b601883610a61565b91507f50617373776f72642063616e6e6f7420626520656d70747900000000000000006000830152602082019050919050565b6108b781610ab0565b82525050565b60006108c98284610776565b915081905092915050565b60006020820190506108e96000830184610767565b92915050565b600060c0820190506109046000830189610767565b818103602083015261091681886107f5565b9050818103604083015261092a81876107f5565b9050818103606083015261093e81866107f5565b905061094d60808301856108ae565b61095a60a08301846108ae565b979650505050505050565b6000604082019050818103600083015261097f81856107f5565b905061098e6020830184610767565b9392505050565b600060208201905081810360008301526109ae8161082e565b9050919050565b600060208201905081810360008301526109ce8161086e565b9050919050565b6000604051905081810181811067ffffffffffffffff821117156109fc576109fb610b5d565b5b8060405250919050565b600067ffffffffffffffff821115610a2157610a20610b5d565b5b601f19601f8301169050602081019050919050565b60008190508160005260206000209050919050565b600081519050919050565b600081905092915050565b600082825260208201905092915050565b6000610a7d82610a90565b9050919050565b60008115159050919050565b600073ffffffffffffffffffffffffffffffffffffffff82169050919050565b6000819050919050565b82818337600083830152505050565b60005b83811015610ae7578082015181840152602081019050610acc565b83811115610af6576000848401525b50505050565b60006002820490506001821680610b1457607f821691505b60208210811415610b2857610b27610b2e565b5b50919050565b7f4e487b7100000000000000000000000000000000000000000000000000000000600052602260045260246000fd5b7f4e487b7100000000000000000000000000000000000000000000000000000000600052604160045260246000fd5b6000601f19601f8301169050919050565b610ba681610a72565b8114610bb157600080fd5b5056fea2646970667358221220cb7da95fc2fd0b338d8862c5576b0936a7db2b74ecb8210b8595dc6f1fc22ab564736f6c63430008000033",
  "immutableReferences": {},
  "source": "// SPDX-License-Identifier: MIT\npragma solidity ^0.8.0;\n\ncontract RideShareConnect {\n    // Define a struct to represent user data\n    struct User {\n        bool isDriver;\n        string username;\n        string password; // Note: In a production environment, passwords should be securely hashed.\n        string carRegistration;\n        uint256 numberOfSeats;\n        uint256 seatPrice;\n    }\n\n    // Mapping to store user data\n    mapping(address => User) public users;\n\n    // Event to log user signup\n    event UserSignup(address indexed userAddress, string username, bool isDriver);\n\n    /// Function to sign up as a customer\n    function signupCustomer(string memory _username, string memory _password) public {\n        require(bytes(_username).length > 0, \"Username cannot be empty\");\n        require(bytes(_password).length > 0, \"Password cannot be empty\");\n\n        users[msg.sender] = User({\n            isDriver: false,\n            username: _username,\n            password: _password,\n            carRegistration: \"\",\n            numberOfSeats: 0,\n            seatPrice: 0\n        });\n\n        emit UserSignup(msg.sender, _username, false);\n    }\n\n\n    // Function to sign in\n    function signin(string memory _username, string memory _password) public view returns (bool) {\n        require(bytes(_username).length > 0, \"Username cannot be empty\");\n        require(bytes(_password).length > 0, \"Password cannot be empty\");\n\n        User storage user = users[msg.sender];\n        return keccak256(bytes(user.username)) == keccak256(bytes(_username)) &&\n               keccak256(bytes(user.password)) == keccak256(bytes(_password));\n    }\n}\n",
  "sourcePath": "/home/fatima/RideShare-Connect/contracts/RideShareConnect.sol",
  "compiler": {
    "name": "solc",
    "version": "0.8.0+commit.c7dfd78e.Emscripten.clang"
  },
  "schemaVersion": "3.4.16",
  "updatedAt": "2023-12-07T08:38:35.639Z",
  "networkType": "ethereum",
  "devdoc": {
    "kind": "dev",
    "methods": {},
    "version": 1
  },
  "userdoc": {
    "kind": "user",
    "methods": {
      "signupCustomer(string,string)": {
        "notice": "Function to sign up as a customer"
      }
    },
    "version": 1
  }
}